:4000000000800020110000003D0100003D01000080B500AF024A034B1B68136000F098F8BC760040FA46004010B5054C237833B9044B13B10448AFF300800123237010BD0B
:400040008881FF1F00000000D4350000084B10B51BB108480849AFF300800848036803B910BD074B002BFBD0BDE81040184700BF00000000D43500008C81FF1F0881FF1F2F
:400080000000000080B592B000AF62B60020012101F07CFA00BF01F02BFC0346002BFAD000F028FD03F0C6F900F03CFD214B01221A60204B02225A601E4B03229A601E4B11
:4000C0001C4A1A60002387F84730032001F01CFC0346012B0CD1174B1B6803F58053154A1360154B1B6803201946402201F022FC012000F037FD0346002B19D000F05AFD48
:400100003864386C00F0AAFD0346002B00DA0733DB103B6403F0A8F903461946054A3B6C42F8213000F00EFD03F08EF900F0FAFCCBE700BFAC81FF1F0482FF1F80B500AF7A
:4001400003F008FA03461B680C2B00D1FEE7FEE780B586B000AF224B7B61224B3B61204B7B6135E03B691B68FB603B695B68BB603B699B683B6000237B600CE0FB681A680F
:40018000BB681A60BB680433BB60FB680433FB607B6804337B607A683B689A42EED13B69DB683B6000237B6008E0BB6800221A60BB680433BB607B6804337B607A683B680D
:4001C0009A42F2D13B6910333B617B69013B7B617B69002BC6D103F0C3F9FFF753FFFEE7010000005038000080B582B000AF174B174A1A60174A174B1B6843F40073136020
:4002000000237B600FE07B68032B04D8124A7B6852F8233000E0114B11497A6841F822307B6801337B607B682F2BECD90D4B1B78DAB20D4B1A700D4B094A1A6000F08AFA1F
:400240000B4B00221A600837BD4680BD0CED00E00004FA0514ED00E0000000003D0100000080FF1FBC7600400481FF1F08ED00E00081FF1F80B582B000AF78603960786884
:4002800000213A6803F09DF90837BD4680BD00BF80B584B000AFF860B9607A60F868B9687A6803F083F91037BD4680BD80B483B000AF0346FB71FEE780B487B000AF786056
:4002C000396000233B6100237B6127E07B699B007A6813441B68BB60BB68FB73BB6823F0FF03BB6014E03B695B003A6813441B781A46BB68134419463B695B003A681344B6
:400300005B780B703B6901333B61FB7B013BFB73FB7B002BE7D17B6901337B617B69162BD4D91C37BD465DF8047B704780B582B000AF3C4B00221A803B4B50221A703B487D
:400340003B490422FFF7A4FF3A4B06221A703A4B52221A70394B3A4A1278D2B21A70394B4FF4E3621A80384B42F251221A800023FB7019237B6014E0FB785B00DAB2334B05
:400380001B78DBB203F00103DBB21343DBB203F00303FB704FF4F07003F072F87B68013B7B607B68002B02D0FB78032BE4D17B68002B02D10320FFF779FF254B4FF480720B
:4003C0001A80234B07221A70224B00221A70224B48221A701E4B00221A70204B00221A701F4B02221A701F4B04221A701E4A1E4B1B78DBB243F00103DBB213701B4A1B4B67
:400400001B78DBB243F00103DBB21370184A184B1B78DBB263F07F03DBB213700837BD4680BD00BF804000408240004000410040DC0000480043004000420040A14600407A
:400440000F01004922420040204200402542004004400040064000400840004009400040014000400B400040A2430040A1430040A043004080B483B000AF0F4B1B78FB7134
:400480000E4AFB7903F00703DBB213700C4AFB791B09DBB213700B4B48221A700A4B80221A700A4B08221A70094B44221A700C37BD465DF8047B7047CF0100496E5800405D
:4004C0006F580040C05A0040005B0040045B00407658004080B400AF0B4BFF221A700B4A0A4B1B78DBB203F05703DBB21370084A074B1B78DBB223F02003DBB21370BD463B
:400500005DF8047B704700BF0C81FF1F0D510040005B004080B400AF3B4B1B78DBB2DBB20133DBB2DAB2384B1A70374B1B785BB2072B1FD801A252F823F000BF7B05000093
:400540009D050000CF050000750500005D05000063050000690500006F0500002A4B04221A70294B05221A70274B06221A70264B07221A70244B00221A70244A234B1B78C3
:40058000DBB223F00803DBB21370204A1F4B1B78DBB263F07F03DBB2137031E01B4A1B4B1B78DBB203F07F03DBB21370174A174B1B78DBB243F02003DBB21370144A144B20
:4005C0001B78DBB243F02003DBB2137018E00F4A0E4B1B78DBB223F02003DBB213700C4A0B4B1B78DBB223F02003DBB21370074A064B1B78DBB243F00803DBB2137000BF84
:40060000BD465DF8047B70470C81FF1F0D510040005B004080B400AF0B4BFF221A700B4A0A4B1B78DBB223F05403DBB21370084A074B1B78DBB223F01003DBB21370BD4623
:400640005DF8047B704700BF0D81FF1F0D510040C05A004080B400AF3B4B1B78DBB2DBB20133DBB2DAB2384B1A70374B1B785BB2072B1FD801A252F823F000BFBB06000051
:40068000DD0600000F070000B50600009D060000A3060000A9060000AF0600002A4B04221A70294B05221A70274B06221A70264B07221A70244B00221A70244A234B1B78BA
:4006C000DBB223F00403DBB21370204A1F4B1B78DBB243F04003DBB2137031E01B4A1B4B1B78DBB223F04003DBB21370174A174B1B78DBB243F01003DBB21370144A144B71
:400700001B78DBB243F01003DBB2137018E00F4A0E4B1B78DBB223F01003DBB213700C4A0B4B1B78DBB223F01003DBB21370074A064B1B78DBB243F00403DBB2137000BF76
:40074000BD465DF8047B70470D81FF1F0D510040C05A004080B582B000AF72B6374B60221A70FFF7E3FD364A354B1B78DBB243F00403DBB213700023FB7113E0FA791346ED
:400780005B0013445B002F4A13443B603B681A683B689B889BB210461946FFF76BFDFB790133FB71FB79062BE8D94FF090402649FFF782FD254B0A221A70254A244B1B7872
:4007C000DBB243F00203DBB21370224A214B1B78DBB243F00203DBB213701F4A1E4B1B78DBB243F04003DBB213701C4A1B4B1B78DBB243F01003DBB213701948194908223D
:40080000FFF746FD184819490A22FFF741FD184818490822FFF73CFD174A174B1B78DBB243F00803DBB21370FFF724FE13480A490E22FFF72DFD0837BD4680BD00480040F5
:40084000E8460040D83500005C000048835800400350014013500140A0430040C243004002510040C0000048F0510040C800004812510040D400004822430040B0430040DB
:4008800080B582B002AF324B01221A70314B00221A70102000F0A0FC102000F083FD1D20072100F0EFFD2C4B04221A702B4B00221A702B4B00221A702A4A2A4B1B78DBB2BD
:4008C00043F01803DBB21370274B00221A70274B00221A70264B00221A70264B0A221A70254B00221A70254B00221A70244B5B221A70244B5E221A70234B00221A70234B6B
:4009000014221A7001230093052049F25B114FF40042122300F0ACFA1D4A0D4B1B78DBB2013B1C499B000B449B7813701A4A084B1B78DBB2013B174931F823301380044B53
:400940001B78DBB2184600F0E5F9BD4680BD00BF0E81FF1FF081FF1F96580040975800409E580040075B004093580040885B0040895B0040805800408158004083580040FD
:4009800088580040895800408D580040014E00400E4E0040F481FF1F0C4E004080B582B000AF02F08CFD0346FB71444B1B78BB71434A434B1B78DBB243F00103DBB2137063
:4009C0003F4A3F4B1B78DBB243F01003DBB213703C4A3C4B1B78DBB243F00103DBB21370384A384B1B78DBB243F01003DBB21370354A354B1B78DBB243F00203DBB2137018
:400A0000324A324B1B78DBB243F00203DBB213702F4A2F4B1B78DBB243F00303DBB21370032000F0F5FC284A274B1B78DBB223F00203DBB21370254A244B1B78DBB223F0B8
:400A40000203DBB21370234A224B1B78DBB243F00603DBB21370204B7A221A701F4A1F4B1B78DBB243F00103DBB213701C4A1C4B1B78DBB243F00103DBB21370194A194B55
:400A80001B78DBB243F00103DBB21370164A164B1B78DBB243F00103DBB21370134B4FF000521A60124B4FF000521A60FB79184602F009FD0837BD4680BD00BF0E81FF1F21
:400AC000AA430040BA430040F8460040F9460040915800407758004082580040A1430040B1430040A2430040B243004080E200E000E100E080B500AF084B1B78002B09D1B9
:400B0000074B1B78DBB2002B01D1FFF7B9FE034B01221A70FFF742FF80BD00BFF281FF1FF381FF1F80B400AF054A054B1B78DBB243F00103DBB21370BD465DF8047B7047D1
:400B4000004E004080B400AF054A054B1B78DBB223F00103DBB21370BD465DF8047B7047004E004080B485B000AF0346FB710E4B1B78DBB2002B03D00C4B1B78FB7305E081
:400B80000B4B1B78DBB203F00103FB73FB7B012B02D0FB79002BEAD0FB7B18461437BD465DF8047B704700BFF181FF1FF081FF1F014E004080B483B000AF224B1B78DBB2D0
:400BC00003F00303FB70FB78012B0BD81E4B1B889BB27B607B681B041C4A128892B213437B6020E0FB78022B12D1174B1B889BB27B607B681B04154A1278D2B213437B6014
:400C0000134B1B78DBB21B027A6813437B600AE00E4B1B889BB27B600B4B1B889BB21B047A6813437B600B4B1B78DBB2002B02D0094B00221A707B6818460C37BD465DF831
:400C4000047B7047144E0040124E0040104E0040114E0040F181FF1FF081FF1F80B487B000AF7860274B1B78DBB2012B02D11223FB7311E0234B1B78DBB2022B02D11023C8
:400C8000FB7309E01F4B1B78DBB2032B02D11023FB7301E01023FB73FB7B102B02D0122B06D00BE047F612237B6120233B610AE04FF4FA537B617D233B6104E0124B7B61D2
:400CC00001233B6100BF114B1A683B6992FBF3F33B617B697A6802FB03F23B6992FBF3F20B4B1B68796901FB03F13B6991FBF3F3D31ABB60BB6818461C37BD465DF8047BA2
:400D0000704700BF0E81FF1F40420F000882FF1F0C82FF1F80B582B000AF0346FB71364B00221A70FB79012B63D1344B7C221A70334B04221A70334B09221A70324B0F2229
:400D40001A70324B00221A70314B3F221A70314B00221A70304B00221A70304B00221A702F4B01221A702F4B50221A702E4B13221A702E4B2B221A702D4B00221A702D4B22
:400D800044221A702C4B48221A702C4B02221A702B4B02221A702B4B12221A702A4B28221A702A4BEB221A70442000F017F9284B58221A70274B00221A70274B02221A70ED
:400DC000264B02221A70264B00221A70254B00221A70254B4FF47A421A600520012100F03FF91920012100F021FA1D201F4900F021FB0837BD4680BDF181FF1F004E00408F
:400E0000024E0040034E0040044E0040054E0040064E0040084E0040094E00400A4E0040144E0040845800408558004086580040875800408A5800408B5800408C58004092
:400E40008E5800408F580040905800409158004094580040955800409A5800409B5800409C5800409D5800400882FF1F5510000090B587B000AF0446084611461A462346BD
:400E8000FB710346BB800B467B801346BB7197F82830002B00F08A8097F82830012B00F28580FB79013B092B4AD801A252F823F0D90E0000410F0000410F0000D90E0000E7
:400EC000410F0000410F0000F30E00000D0F0000410F0000270F0000BB790F2B04D9364B1B78DBB2FB752EE0344B1B78DBB2FB7529E0BB790F2B04D9314B1B78DBB2FB75D6
:400F000021E0304B1B78DBB2FB751CE0BB790F2B04D92D4B1B78DBB2FB7514E02B4B1B78DBB2FB750FE0BB790F2B04D9284B1B78DBB2FB7507E0274B1B78DBB2FB7502E054
:400F40000023FB7500BFBA8897F917305B0113443B617B883A6902FB03F3FB60FB68DB0BBB82BB790D2B11D8BB8ABA79C2F10E021341BB8297F82830013BBA790132D1B210
:400F8000154A9B0013440A469A7007E097F82830013B114A9B0013440F229A7097F82830013B0D49BA8A21F8232002E0002000F023FA1C37BD4690BD180100491C01004961
:400FC000190100491D0100491A0100491E0100491B0100491F010049F481FF1F80B584B000AF0346FB7102F06AFA0346FB73164A154B1B78DBB243F00303DBB21370134A9A
:40100000124B1B78DBB243F00303DBB21370104AFB791370032000F0FBF90B4A0A4B1B78DBB223F00303DBB21370084A074B1B78DBB223F00303DBB21370FB7B184602F0EC
:4010400042FA1037BD4680BDF8460040F94600409258004080B400AFBD465DF8047B704780B584B000AF03460A46FB8013467B7100F0CCF80346FB7300F0A2F80346BB812A
:40108000FA88BB899A4200F08780454B1B78DBB203F00103FB72FB7B002B20D1BB89002B02D0FB88002B1AD1BB89002B0BD13D4AFB8813803C4A3C4B1B78DBB223F04003AC
:4010C000DBB2137068E0384A374B1B78DBB243F04003DBB21370334AFB8813805CE0FB7A002B33D0314B00221A70314B01221A70304B00221A70304A2F4B1B78DBB203F0FD
:401100007F03DBB21370284B1B78DBB203F00803002B02D0FB88002B18D1284ABB891380224B07221A7000BF204B1B78DBB203F00103002BF8D11A4A194B1B78DBB223F05F
:401140000103DBB21370194B00221A70144B1B78DBB203F00103002B13D0184AFB881380124A7B79002B01D0032300E00123137000BF0E4B1B78DBB203F00103002BF8D133
:401180000AE0084AFB8813800549054B1B78DAB2FB7A1343DBB20B701037BD4680BD00BFA24300408040004082400040014000401040004014400040084000400240004031
:4011C00080B400AF034B1B889BB21846BD465DF8047B70478040004080B483B000AF0346FB71094B084A1278D2B2D1B2FA7922F00702D2B20A43D2B2D2B21A700C37BD46A9
:401200005DF8047B704700BF8240004080B400AF054B1B78DBB203F00703DBB21846BD465DF8047B704700BF8240004080B584B000AF03460A46FB8013467B7100F0CCF8B3
:401240000346FB7300F0A2F80346BB81FA88BB899A4200F08780454B1B78DBB203F00103FB72FB7B002B20D1BB89002B02D0FB88002B1AD1BB89002B0BD13D4AFB881380A7
:401280003C4A3C4B1B78DBB223F04003DBB2137068E0384A374B1B78DBB243F04003DBB21370334AFB8813805CE0FB7A002B33D0314B00221A70314B01221A70304B002249
:4012C0001A70304A2F4B1B78DBB203F07F03DBB21370284B1B78DBB203F00803002B02D0FB88002B18D1284ABB891380224B07221A7000BF204B1B78DBB203F00103002BD1
:40130000F8D11A4A194B1B78DBB223F00103DBB21370194B00221A70144B1B78DBB203F00103002B13D0184AFB881380124A7B79002B01D0032300E00123137000BF0E4BB8
:401340001B78DBB203F00103002BF8D10AE0084AFB8813800549054B1B78DAB2FB7A1343DBB20B701037BD4680BD00BFA143004000410040024100400140004014400040FD
:4013800010400040084000400240004080B400AF034B1B889BB21846BD465DF8047B70470041004080B483B000AF0346FB71094B084A1278D2B2D1B2FA7922F00702D2B2F1
:4013C0000A43D2B2D2B21A700C37BD465DF8047B704700BF0241004080B400AF054B1B78DBB203F00703DBB21846BD465DF8047B704700BF0241004080B483B000AF034691
:40140000FB7101BE0C37BD465DF8047B704700BF80B582B000AF0346FB80FB88044A127802FB03F3184602F02BF80837BD4680BD1881FF1F80B584B000AF03463960FB71BA
:401440000F4B1B68FB60FB791F2B02D90020FFF7D3FFFB7903F01F0310339B00FA6813441B68BB60FB7903F01F0310339B00FA6813443A681A60BB6818461037BD4680BDB1
:4014800008ED00E080B582B000AF03460A46FB711346BB71BB79072B02D90020FFF7ACFFFB791F2B02D90020FFF7A6FFFB7903F01F0303F1604303F56443BA795201D2B298
:4014C0001A700837BD4680BD80B483B000AF7860264B1B78DBB21A467B681A60244B1B78DBB21B027A6812681A437B681A60214B1B78DBB21B047A6812681A437B681A6024
:401500001D4B1B78DBB21B067A6812681A437B681A607B680433194A1278D2B21A60184B1B78DBB21A027B6804337968043109680A431A60134B1B78DBB21A047B6804332A
:401540007968043109680A431A600F4B1B78DBB21A067B6804337968043109680A431A600C37BD465DF8047B704700BF0301004904010049EC4600400201004901010049E7
:4015800000010049050100490601004980B582B000AF03460A46FB711346BB71084B1B78002B04D100F00EF8054B01221A70FA79BB791046194600F0CBF80837BD4680BD3B
:4015C000F881FF1F80B582B000AF01F078FF0346FB714F4A4E4B1B78DBB243F00103DBB213704C4A4B4B1B78DBB243F00103DBB21370494B01221A70484B02221A70484AE1
:40160000474B1B78DBB203F07F03DBB213700020FFF7FEFE434A434B1B78DBB223F00603DBB21370404A404B1B78DBB223F02003DBB213703B4A3B4B1B78DBB243F001031D
:40164000DBB213700120FFF7E3FE2820FFF7E0FE364A364B1B78DBB203F07F03DBB21370324A324B1B78DBB223F04003DBB213702C4A2C4B1B78DBB243F00203DBB21370CC
:401680000220FFF7C5FE274A264B1B78DBB243F00403DBB21370264B00221A70254B00221A70FB79184601F00EFF17200721FFF7E9FE17202049FFF7BDFE18200721FFF717
:4016C000E1FE18201D49FFF7B5FE15200721FFF7D9FE15201A49FFF7ADFE00200721FFF7D1FE00201749FFF7A5FE01200721FFF7C9FE01201449FFF79DFE0C200721FFF7DC
:40170000C1FE0C201149FFF795FE0837BD4680BDA5430040B54300409D60004009600040106000409443004012600040F85100408460004085600040012100002D1A000062
:40174000F52000004D200000A1200000B524000080B584B000AF03460A46FB711346BB710023FB7306E0FB7B314A0121D154FB7B0133FB73FB7B002BF5D02E4AFB7913700F
:401780002D4B00221A702D4B00221A702C4B00221A702C4B00221A702B4B00221A702B4B00221A702A4B00221A702A4B4FF400021A60284B4FF080721A60264B4FF400121E
:4017C0001A60244B01221A60224B02221A60BB79002B02D0012B09D011E01F4A1E4B1B78DBB223F00103DBB2137011E01A4A1A4B1B78DBB243F00103DBB2137008E0164AAF
:40180000154B1B78DBB243F00103DBB2137000BF124B03221A70124B80221A70012001F02FFE104B04221A701037BD4680BD00BFAC82FF1F1182FF1F1482FF1F3082FF1F7C
:401840003382FF1F2882FF1F3282FF1F3582FF1F1082FF1F00E100E00960004028600040086000401260004080B483B000AF0023FB7106E0FB79144A0121D154FB7901339E
:40188000FB71FB79002BF5D0104B00221A70104B00221A700F4B00221A700F4B00221A700E4B00221A700E4B00221A700D4B00221A700D4B03221A700C4B80221A700C3763
:4018C000BD465DF8047B7047AC82FF1F1482FF1F3082FF1F3382FF1F2882FF1F3282FF1F3582FF1F1082FF1F286000400860004080B400AF034B1B78DBB21846BD465DF821
:40190000047B70473382FF1F80B483B000AF0346FB71FA79064913465B0013449B000B445B78DBB218460C37BD465DF8047B70473882FF1FB0B485B000AF03463960FB711F
:401940001346BB80FB79002B66D0FB79082B63D8B988FA79324813465B0013449B000344DB889BB2C3F5007399420BD9FA792C4913465B0013449B000B44DB889BB2C3F522
:401980000073BB80274CF979BB881B0A9BB2D8B2FA79234D13465B0013449B002B44DB78DBB20343DAB20B0123441A701D4AFB79B988C9B21B0113440A465A703B68002BBC
:4019C00013D00023FB810CE01748FB79FA8939680A4412781B01034408331A70FB890133FB81FA89BB889A42EED3FA790C4913465B0013449B000B4400225A700948F9797F
:401A0000FA79074C13465B0013449B0023445B79DAB20B0103449A701437BD46B0BC70473882FF1FFC5F00407060004080B582B000AF374B1B78BB71BB7903F01003002B66
:401A400063D00123FB71BB795BB2002B13DABB7903F00F03012B02D00023FB711DE000F061F82C4B1B78DBB2DBB25BB2002B14DA0023FB7111E0BB7903F04003002B02D00D
:401A800000F094F809E0BB7903F02003002B02D000F0B2F801E00023FB71FB79002B34D01B4B1B78BB71BB795BB2002B2DDB1A4B1B78DAB2194B1B78DBB21343BB71184A48
:401AC000BB791370164B1B78DBB2BA799A421CD1104B1B78FB710E4B1B78DBB223F07F03BB71BB79002B0AD1094B0A4A1278D2B21A70074B1B78DBB203F00F03FB71054B71
:401B00001B78DBB2FA799A42E2D10837BD4680BD286000403182FF1FA582FF1F3482FF1F2960004080B582B000AF1D4B1B78FB711B4AFB7913701A4B1B78FB71FB795BB2CB
:401B4000002B03DA174AFB79137025E0022000F043FA154B1B78DBB203F06003202B08D0402B0BD0002B0ED100F0AAFC0346FB710CE001F0B1FC0346FB7107E001F020FCEA
:401B80000346FB7102E00023FB7100BFFB79002B02D1044B03221A700837BD4680BD00BF286000403182FF1F0060004080B500AF104B1B78DBB2062B19D801A252F823F0D8
:401BC000EF1B0000EF1B0000DD1B0000EF1B0000E31B0000EF1B0000E91B000000F0FAF806E000F0A9F903E000F0D2F900E000BF80BD00BF1482FF1F80B500AF124B1B78A8
:401C0000DBB2062B1DD801A252F823F0431C0000431C0000291C0000431C00002F1C0000431C0000351C000000F0DAF80AE000F029F907E0032000F0CFF9044B03221A7016
:401C400000E000BF80BD00BF1482FF1F3182FF1F80B483B000AF0023FB71294B1B78DBB29AB2284B1B889BB213449AB2254B1A8015E02549FB79254A52681278D2B2CA5483
:401C8000224B5B680133214A5360FB790133FB711E4B1B889BB2013B9AB21C4B1A801B4B1B889BB2002B02D0FB79072BE1D9144B1B78DBB2082B02D0FB79002B0FD0144B98
:401CC0001B78DBB283F07F03DB43DAB2104B1A70104B0F221A70104B02221A7005E00D4B02221A700C4B02221A700C4AFB791370034AFB7913700C37BD465DF8047B7047CF
:401D00001082FF1F1282FF1F006000401C82FF1FA582FF1F3182FF1F1482FF1F3482FF1F80B582B000AF164B1B889BB2002B02D100F02EF81EE0134B02221A70124B002243
:401D40001A7000F069F9114BDB79DBB29BB21B029AB20E4B9B79DBB29BB21343FB80084B1B889BB2FA889A4202D2054AFB881380FFF76EFF012318460837BD4680BD00BF7F
:401D80001C82FF1F1482FF1FA582FF1F0060004080B400AF0A4B02221A700A4B80221A70094B0F221A70094B00221A70084B00221A7001231846BD465DF8047B704700BF8A
:401DC0001482FF1FA582FF1F3182FF1F1082FF1F3482FF1F80B500AFFFF73AFF80BD00BF80B500AF0A4B1B78DBB29AB2094B1B889BB213449AB2074B1A80074B00221A7010
:401E0000012000F0E9F8054B03221A7080BD00BF1082FF1F1282FF1F1482FF1F3182FF1F80B582B000AF124B04221A70114B80221A7000F0F1F8104BDB79DBB29BB21B02A4
:401E40009AB20D4B9B79DBB29BB21343FB800B4B1B889BB2FA889A4202D2084AFB881380074B0B221A70012318460837BD4680BD1482FF1FA582FF1F006000401C82FF1FC0
:401E80003182FF1F80B483B000AF0023BB71234B1B78DBB203F00F03DBB2023BFB71FB799AB21F4B1B889BB213449AB21C4B1A8018E01C4B5B681C49BA798A5CD2B21A70B7
:401EC000184B5B680133174A5360BB790133BB71FB79013BFB71134B1B889BB2013B9AB2104B1A800F4B1B889BB2002B02D0FB79002BDED10D4AFB7913700D4B1B78DBB29E
:401F000083F07F03DB43DAB2094B1A70094B0B221A700C37BD465DF8047B7047296000401282FF1F1C82FF1F006000403482FF1FA582FF1F3182FF1F80B500AF044B002232
:401F40001A70012000F048F8024B03221A7080BD1482FF1F3182FF1F80B400AF084B06221A70084B06221A70074B80221A70074B00221A7001231846BD465DF8047B70474F
:401F80001482FF1F3182FF1FA582FF1F3482FF1F80B500AF0C4B1B78DBB2002B0AD00B4A094B1B78DBB263F07F03DBB21370064B00221A70064B00221A70012000F00CF866
:401FC000044B03221A7080BD3282FF1F086000401482FF1F3182FF1F80B483B000AF0346FB710B4B9B68002B0CD0094B9B68FA791A70074B9B68074A128892B25A80044B7B
:4020000000229A600C37BD465DF8047B704700BF1C82FF1F1282FF1F80B400AF094B00221A80094B9B68002B07D0074B9B6800221A70054B9B6800225A80BD465DF8047B13
:40204000704700BF1282FF1F1C82FF1F80B400AF104B04221A70104B93F832300F4B93F82430DBB203F00303012B0AD00B4B93F82730DBB283F07F03DB43DAB2074B83F850
:402080002720064B012283F82520BD465DF8047B704700BF0B600040FC5F00403882FF1F80B400AF104B08221A70104B93F842300F4B93F83030DBB203F00303012B0AD01F
:4020C0000B4B93F83330DBB283F07F03DB43DAB2074B83F83320064B012283F83120BD465DF8047B704700BF0B600040FC5F00403882FF1F80B400AFBD465DF8047B704734
:4021000080B500AFFFF7B0FB80BD00BF80B582B000AF0023FB716C4B1B79BB716A4B1B78DBB2DBB25BB2002B6DDA674B5B78DBB2013B052B65D801A252F823F09B210000AA
:40214000B5210000E12100000322000003220000552100005C4BDB78DBB2212B0BD100F0BDF85A4B1B889BB2002B15D0FFF7D8FD0346FB7146E0544BDB78DBB2222B0BD180
:4021800000F0EAF8514B1B889BB2002B04D0FFF7C7FD0346FB7135E034E000F025F94B4B1B889BB2002B04D0FFF7BAFD0346FB7128E027E0BB79002B11D1434B9B78DBB2B7
:4021C000002B0CD1414B01221A80BB79404A13443E4A5360FFF7A4FD0346FB7112E011E0BB79002B0CD1394B01221A80BB79394A1344364A5360FFF793FD0346FB7101E035
:4022000000E000BF5AE0304B5B78DBB20A2B11D00B2B3FD0092B00D050E000F0E5F82B4B1B889BB2002B04D0FFF7FAFD0346FB7144E043E0BB79002B2BD1234B9B78DBB2D7
:40224000002B26D1BB79204AD278D1B2204AD154BB791F4AD35CDAB2BB791F49CB5CDBB29A4204D2BB791C4A0021D1540CE0BB79194AD35CDBB2012B06D9BB79BA791449FA
:402280008A5CD1B2144AD154FFF766FE0346FB7114E013E0BB79002B0FD10B4B9B78DBB2012B0AD8BB79084A9278D1B2094AD154FFF752FE0346FB71FFE700BFFB791846FC
:4022C0000837BD4680BD00BF006000401C82FF1FB482FF1FAC82FF1FB082FF1F80B584B000AF194B1B78DBB2013BDBB2184600F0C7FEF860154B1B79FB72FB7A0233DB009E
:40230000FA681344FB60FB685B68FB60FB7A104AD35CDBB2DB00FA681344FB60FB685B68FB60FB682033FB60FB685B687B607B681B78DBB29AB2074B1A80064A7B685360DA
:402340001037BD4680BD00BF3382FF1F00600040A482FF1F1C82FF1F80B584B000AF1E4B1B78DBB2013BDBB2184600F089FEF8601A4B1B79FB72FB7A0233DB00FA68134469
:40238000FB60FB685B68FB60FB7A154AD35CDBB2DB00FA681344FB60FB685B68FB60FB681833FB60FB685B687B607B6801331B78DBB29BB21B029AB27B681B78DBB29BB2FA
:4023C00013439AB2074B1A807B680233054A53601037BD4680BD00BF3382FF1F00600040A482FF1F1C82FF1F80B584B000AF2D4B00221A802C4B1B78DBB2013BDBB2184672
:4024000000F03EFEF860294BDB78FB72274B1B79BB72BB7A0233DB00FA681344FB60FB685B68FB60BB7A002B38D1BB7A204AD35CDBB2DB00FA681344FB60FB685B68FB60A3
:40244000FB7A002B2AD0FB7A032B27D8FB7A03F10053013BDB00FA681344FB60134B9B78FB72FB681B78FA7A9A4217D8FB685B687B60FA7A13465B0013449B001A467B68C8
:4024800013447B607B685B68064A53607B681A88044B1A807B689B68024A93601037BD4680BD00BF1C82FF1F3382FF1F00600040A482FF1F80B500AF00F0ACFF80BD00BF7A
:4024C00080B586B000AF0023FB759D4B1B78FB7100233B619B4B00221A80FB795BB2002B80F20481964B5B78DBB20A2B00F2FC8001A252F823F000BF41260000E92600002B
:40250000E9260000E9260000E9260000E926000025250000E9260000B3260000E9260000C9260000864BDB78DBB2012B0ED100F0D1FDB860BB685B68824A5360814B122238
:402540001A80FFF7EDFB0346FB7578E07C4BDB78DBB2022B24D17A4B9B78DBB2184600F08FFDB860BB68002B69D0BB685B68754A5360744B5B6803331B78DBB29BB21B0291
:402580009AB2704B5B6802331B78DBB29BB213439AB26C4B1A80FFF7C3FB0346FB75A4E0674BDB78DBB2032B44D10023FB73664B3B6109E03B691B78BB71BB793A6913449E
:4025C0003B61FB7B0133FB735D4B9B78DBB2FA7B9A4204D23B691B78DBB2002BEAD1584B9B78DBB2EE2B01D1584B3B61544B9B78DBB2002B0BD0524B9B78DAB2544B1B7CEA
:402600009A4204D1534800F0A1F9524B3B613B691B78DBB2002B12D03B691B78DBB29AB2484B1A80474A3B695360FFF779FB0346FB755AE000F050FF0346FB7555E054E0D7
:40264000FB7903F00303002B1FD0022B00D02FE03C4B02221A803A4B1B79DBB203F07F023D4913465B0013449B000B449B78DAB23A4B1A70394B00225A70324B374A5A6017
:40268000FFF74EFB0346FB7512E02E4B02221A80334B1B78DAB2314B1A70304B00225A70284B2E4A5A60FFF73BFB0346FB7500BF1BE0244B01221A80224B2A4A5A60FFF7EE
:4026C0002FFB0346FB7510E01E4B01221A801C4B1B79DBB21A46244B13441A4A5360FFF71FFB0346FB7500E000BF19E1144B5B78DBB2013B0A2B00F2128101A252F823F005
:402700000B2800001F290000952800001F2900002D2700001F2900001F2900001F290000712700001F290000C7270000044B9B78DAB20E4B1A70FFF70FFC0346FB75EFE0C5
:40274000006000401C82FF1F58360000EC370000183600000083FF1F3882FF1FFC81FF1F3582FF1F3382FF1FA482FF1F3282FF1F6E4B9B787B717B79002B06D07B79013B4F
:40278000DBB2184600F07CFCB8607B79002B02D0BB68002B02D17B79002B13D1644B1B78DBB27A799A4208D0614A7B791370614B01221A70012000F0C1F9FFF7CDFB0346D6
:4027C000FB75ADE0ACE000F0C3FD0346002B1BD0564B1B793B71554B1B79DAB2564B1A703B79564AD35CDAB23B795549CB5CDBB29A4204D04F4B01221A7000F023FBFFF765
:40280000ABFB0346FB758BE08AE0FB7903F00303012B22D0012B0DD3022B00D039E0434B9B78DBB2002B04D100F0FAFC0346FB752FE02EE03D4B9B78DBB2012B0CD1414B10
:402840001B78DBB223F00203DAB23E4B1A70FFF783FB0346FB751CE01BE0344B1B79DBB2002B15D1314B9B78DBB2DB43DBB22F4A1279D2B211461046334A125CD2B21340EE
:40288000DAB2314B5A54FFF767FB0346FB75FFE700BF45E0FB7903F00303012B22D0012B0DD3022B00D039E0204B9B78DBB2002B04D100F047FC0346FB752FE02EE01B4B60
:4028C0009B78DBB2012B0CD11E4B1B78DBB243F00203DAB21B4B1A70FFF73EFB0346FB751CE01BE0114B1B79DBB2002B15D10F4B9B78DBB2DB43DBB20C4A1279D2B2114624
:402900001046114A125CD2B21340DAB20E4B5A54FFF722FB0346FB75FFE700BF00E000BFFB7D18461837BD4680BD00BF006000403382FF1F3082FF1F2882FF1F1882FF1F17
:40294000A482FF1F3582FF1FA882FF1FB0B58AB000AF7860314B07F114041D460FCD0FC42B682370002387F826307B68002B52D07B6822221A707B68013303221A7007F175
:402980000C031846FEF7A0FD022387F827303EE097F827307A68134497F8262007F128010A4412F81C2C1209D2B207F128010A4412F8142C1A7097F8273001337A68134415
:4029C00000221A7097F8273002337A68134497F8262007F128010A4412F81C2C02F00F0207F128010A4412F8142C1A7097F8273003337A68134400221A7097F826300133E1
:402A000087F8263097F82730043387F8273097F82730212BBCD92837BD46B0BD0436000090B482B000AF0123FB7174E03F4AFB791B0113440C221A70FA793D4913465B0020
:402A400013449B000B445B79DBB2002B1AD0FA79374913465B0013449B000B441B79DBB2DBB25BB2002B06DA324AFB791B0113440C229A700CE02F4AFB791B0113440822E0
:402A80009A7005E02B4AFB791B01134480229A702648F979FA79264C13465B0013449B002344DB889BB2DAB20B0103449A711F48F979FA791E4C13465B0013449B002344F0
:402AC000DB889BB21B0A9BB2DAB20B010344DA711648F979FA79164C13465B0013449B002344DB889BB2DAB20B0103441A710F48F979FA790E4C13465B0013449B0023441B
:402B0000DB889BB21B0A9BB2DAB20B0103445A71FB790133FB71FB79082B87D9064BFF221A700837BD4690BC704700BF706000403882FF1FFC5F00400A60004080B588B014
:402B400000AF0346FB7100237B830023FB7743E0FA7FB64913465B0013449B000B4400221A70FA7FB14913465B0013449B000B4400229A70FA7FAD4913465B0013449B0056
:402B80000B440022DA70FA7FA84913465B0013449B000B44083300221A80FA7FA34913465B0013449B000B44083300229A70FA7F9E4913465B0013449B000B4400225A7002
:402BC000FA7F9A4913465B0013449B000B4400225A71FB7F0133FB77FB7F082BB8D9FB79002B10D000237B770AE07B7F904A0021D1547B7F8F4A0021D1547B7F01337B7768
:402C00007B7F002BF1D08C4B1B78DBB2002B00F00981894B1B78DBB2013BDBB2184600F02FFA38613B695B68FB60FB6807331B7803F04003002B08D0804B1B78DBB243F0FC
:402C40000103DAB27D4B1A7007E07C4B1B78DBB223F00103DAB2794B1A703B6908333B613B691B78FB7701237B7790E03B695B687B610023BB7782E07A7F7B699B7803F02C
:402C80007F039A4275D17A7F684913465B0013449B000B4408331B889AB27B699B889A420BD27A7F7B699888604913465B0013449B000B44083302461A807B691B781A4658
:402CC0005B4B9B5CDAB27B695B789A4251D17A7F7B699878554913465B0013449B000B4402461A717A7F7B69D878504913465B0013449B000B4402461A707B69DB7803F0EC
:402D00000303FB727B699B78DBB25BB2002B18DA7A7FFB7A012B01D1072000E00D20434913465B0013449B000B4402465A717A7F3E4913465B0013449B000B4401225A70DC
:402D400017E07A7FFB7A012B01D1052000E00920364913465B0013449B000B4402465A717A7F324913465B0013449B000B4400225A707B6908337B61BB7F0133BB77BA7F12
:402D8000FB7F9A42FFF478AF7B7F01337B777B7F082B7FF66BAF3B695B687B6100237B7714E07B699B7803F07F027B6918781F4913465B0013449B000B44083302469A70B2
:402DC0007B6908337B617B7F01337B777A7FFB7F9A42E6D300F090F90246194B1A6000237B830123FB7718E0FA7F104913465B0013449B000B447A8BDA80FA7F0B49134616
:402E00005B0013449B000B4408331B889AB27B8B13447B83FB7F0133FB77FB7F082BE3D9FFF7FEFD2037BD4680BD00BF3882FF1FA482FF1F1882FF1F3382FF1F3582FF1F25
:402E40002C82FF1F90B585B000AF874B1B78DBB2002B00F00681844B1B78DBB2013BDBB2184600F00DF978607B6808337B607B681B78FB707B685B68BB607C4B1B78BB70C5
:402E80000023FB73E8E0BB681B78BA789A4240F0DD80BB78764AD35CDAB2BB685B789A4240F0D480BB689B7803F07F037B70BB68DB7803F003033B707A786E4913465B0057
:402EC00013449B000B440022DA707A78BB689878684913465B0013449B000B4402461A717A78BB68D878634913465B0013449B000B4402461A707A78BB6898885D4913467B
:402F00005B0013449B000B44083302461A80BB689B78DBB25BB2002B18DA7A783B78012B01D1072000E00D20524913465B0013449B000B4402465A717A784E4913465B0034
:402F400013449B000B4401225A7017E07A783B78012B01D1052000E00920464913465B0013449B000B4402465A717A78414913465B0013449B000B4400225A703E4A7B78EC
:402F80001B01134401229A703B4879787A78394C13465B0013449B00234408331B889BB21B0A9BB2DAB20B0103441A70324879787A78304C13465B0013449B002344083352
:402FC0001B889BB2DAB20B0103445A702B4879787A78284C13465B0013449B002344DB889BB2DAB20B0103449A71244879787A78204C13465B0013449B002344DB889BB24F
:403000001B0A9BB2DAB20B010344DA711B4879787A78184C13465B0013449B002344DB889BB2DAB20B0103441A71144879787A78104C13465B0013449B002344DB889BB2CB
:403040001B0A9BB2DAB20B0103445A71BB680833BB60FB7B0133FB73FA7BFB789A42FFF412AF1437BD4690BD3382FF1F2882FF1FA482FF1F3882FF1FFC5F0040706000402E
:4030800080B485B000AF0346FB71104B1B78DBB20F4ADB0013445B68FB60FB681033FB60FB681B78FA799A4202D30023FB6005E0FB79DB00FA6813445B68FB60FB681846BA
:4030C0001437BD465DF8047B704700BF1182FF1FE437000080B400AF054B1B78DBB2054ADB0013445B681846BD465DF8047B70471182FF1FE437000080B584B000AF104BAA
:403100001B78DBB2013BDBB21846FFF7B9FFB860BB68002B0DD0BB685B681B79FB71FB790233DB00BA681344BB60BB685B68FB6001E00023FB60FB6818461037BD4680BD71
:403140003382FF1F80B582B000AF0023FB71314B1B79DBB203F07F03BB71BB79002B53D0BB79082B50D8BA79B9792B480B465B000B449B0003449B78DBB243F00103D8B272
:40318000254913465B0013449B000B4402469A70BA79214913465B0013449B000B440022DA70BA79B9791C480B465B000B449B0003445B78DBB243F00203D8B216491346DC
:4031C0005B0013449B000B4402465A70BA79124913465B0013449B000B441B79DBB2DBB25BB2002B06DA0D4ABB791B0113448D229A7005E0094ABB791B01134489229A708D
:40320000FEF7AAFE0346FB71FB7918460837BD4680BD00BF006000403882FF1FFC5F004080B582B000AF0023FB71464B1B79DBB203F07F03BB71BB79002B7DD0BB79082B0E
:403240007AD8BA79B97940480B465B000B449B0003449B78DBB223F00103D8B23A4913465B0013449B000B4402469A70BA79364913465B0013449B000B440022DA70334A97
:40328000BB791B0113447F221A70BA79B9792E480B465B000B449B0003445B78DBB223F00203D8B2284913465B0013449B000B4402465A70BA79244913465B0013449B00C4
:4032C0000B441B79DBB2DBB25BB2002B18DABA791D4913465B0013449B000B445B78DBB2012B06D1194ABB791B0113440C229A701EE0164ABB791B0113440D229A7017E03F
:40330000BA79114913465B0013449B000B445B78DBB2012B06D10D4ABB791B01134408229A7005E0094ABB791B01134409229A70FEF712FE0346FB71FB7918460837BD4694
:4033400080BD00BF006000403882FF1FFC5F004080B584B000AF0023FB73154B1B79BB73144B1B78DBB2013BDBB21846FFF788FEB860BB685B681B79FB71BA7BFB799A42CE
:4033800002D9BB7B012B0ED8BB7BBA7B0A498A5CD1B20A4AD154BB7B054A9278D1B2064AD1540123FB73FB7B18461037BD4680BD006000403382FF1FA482FF1F1882FF1F67
:4033C00080B582B000AF0023FB710F4B1B78DBB2DBB25BB2002B12DA0B4B5B78DBB2012B00D00CE0094B0A4A5A60094B1B789AB2064B1A80FEF794FC0346FB7100BFFB7972
:4034000018460837BD4680BD006000401C82FF1F0038000080B400AF054B1B78DBB203F040039B09DBB21846BD465DF8047B70478F45004080B500AF00F00EF8014B012218
:403440001A7080BD0082FF1F80B500AFFDF762F8FDF700F980BD00BF80B500AFFDF73AF8FDF7D8F880BD00BF80B400AF034B1B785BB21846BD465DF8047B70470C81FF1F98
:40348000142816D902B4012114381049097811F0C001890904B40E4A515C04BC00BF00BF00BF8841FDD500BF00BF02BC704700BF00BF70F10400FCD570470B050709EFF3DA
:4034C000108072B6704780F31088704700480040BA340000AFF3008080B582B000AF1A4B1B78DBB203F00303012B02D0022B04D012E0154B1B79BB7111E0134B1B79DBB2EE
:4035000003F07F02114913465B0013449B000B4408339B78BB7102E00023BB7100BF0C4B1A68BB7913441B78032B04D1FEF7EEFD0346FB7102E00023FB7100BFFB791846CD
:403540000837BD4680BD00BF006000403882FF1F2C82FF1F014B1868704700BF8081FF1F0E4B70B51E460E4C0025E41AA410A54204D056F8253098470135F8E700F056F9C4
:40358000084B094C1E46E41AA4100025A54204D056F8253098470135F8E770BD3838000038380000383800004038000010B5431E0A44914204D011F8014B03F8014FF8E747
:4035C00010BD03460244934202D003F8011BFAE77047000000000000205100405000C0510040100000000140001000140140000800400140000A004C01400002005001405E
:403600002000000030313233343536373839414243444546000000001201000202000008B40432F20100060580010000090229000101018032090400000203000005092116
:40364000110100012226000705830340000107050403400001000000040309042C0343007900700072006500730073002000530065006D00690063006F006E0064007500D5
:40368000630074006F0072003803430044004300200043006F006D006D0075006E00690063006100740069006F006E00200049006E00740065007200660061006300650026
:4036C000260343004400430020004400610074006100200049006E007400650072006600610063006500100355005300420055004100520054001803410043004100500023
:40370000430075007200720065006E0074000E0343006F00730069006E006500000000000203000026000600FF0901A10119002940150026FF007508954091001900294037
:40374000150026FF00750895408100C00000000041000000BC82FF1F2483FF1F410000002883FF1FB882FF1F0000000050370000000000005C37000000000000000000009E
:403780000100000024370000010000003E36000001000000683700000000830340000300000004034000030003000000010000002C3600000200000098370000010000004D
:4037C0009037000000000000A83700000100000018360000000000000000000001000000AC37000001000000CC37000012034D00530046005400310030003000010000000B
:403800002800000000010400010000000000000000014359555342000000303030303100000000000000000043000000F8B500BFF8BC08BC9E4670474D000000E9010000E9
:40384000F8B500BFF8BC08BC9E46704729000000603800000881FF1F80000000E801000000000000FFFF010000A24A0440190100480000000000A08C00000000000000003B
:4038800000000000000000000000000000000000000000000000000028380000000000000000000000000000000000000000000000000000000000000000000000000000A8
:4038C0000000000000000000000000000000000000000000000000002081FF1F00000000000000000000000000000000000000000000000000000000000000000000000009
:403900000000000000000000000000000000000000000000000000000000000000000000000000000000000000000000000000000000000000000000000000000000000087
:403940000000000000000000000000000000000000000000000000000000000000000000000000000000000000000000000000000000000000000000000000000000000047
:403980000000000000000000000000000000000000000000000000000000000000000000000000000000000000000000000000000000000000000000000000000000000007
:4039C00000000000000000000000000000000000000000000000000000000000000000000000000000000000000000000000000000000000000000000000000000000000C7
:020000040003F7
:0200000480007A
:40000000014500400152004001090140040A0140010B0140011501400217014002190140011B014003400140024101400242014002430140024401400145014003460140AB
:40004000064701400648014001490140034C0140024D014001500140015101407E027C40B502B802BE01D804DF011D02EC10EA02EE04EA02EE04EC1033803720CC309F20D3
:40008000A7809F20A7809F20A7807C01DE01940145089401D0010B020F04A508B401C203EC082510AB80AF20C820EA40EE20B510A508AB01AF04B508EC080214000A00007D
:4000C000000000000000FC004000000000000000C0000000000B0B0000000000190018010000000000000000000000000000000000000000000000000000000000000000BC
:4001000000000000000000000000000000000000000000000000000000000000000000000000000000000000000000000000000000000000000000000000000000000000BF
:40014000000000000000000000000000000000000000000000000000000000000000000000000000000000000000000000000000000000000000000000000000000000007F
:40018000000000000000000000000000000000000000000000000000000000000000000000000000000000000000000000000000000000000000000000000000000000003F
:4001C00000000000000000000000000000000000000000000000000000000000000000000000000000000000000000000000000000000000000000000000000000000000FF
:0200000490006A
:0400000000004005B7
:0200000490105A
:04000000BC90ACAF55
:0200000490303A
:02000000E35EBD
:0200000490402A
:4000000000000000000000000000000000000000000000000000000000000000000000000000000000000000000000000000000000000000000000000000000000000000C0
:400040000000000000000000000000000000000000000000000000000000000000000000000000000000000000000000000000000000000000000000000000000000000080
:400080000000000000000000000000000000000000000000000000000000000000000000000000000000000000000000000000000000000000000000000000000000000040
:4000C0000000000000000000000000000000000000000000000000000000000000000000000000000000000000000000000000000000000000000000000000000000000000
:0200000490501A
:0C00000000012E16106900012E2AF3C723
:00000001FF