:400000000080002011000000F1000000F100000080B500AF024A034B1B68136000F072F8BC760040FA46004010B5054C237833B9044B13B10448AFF300800123237010BDCB
:400040008881FF1F00000000FC300000084B10B51BB108480849AFF300800848036803B910BD074B002BFBD0BDE81040184700BF00000000FC3000008C81FF1F0881FF1FE9
:400080000000000080B590B000AF62B60020012101F036F800BF01F0E5F90346002BFAD000F0CAFB00F0E0FB0F4B01221A600E4B02225A600C4B03229A600C4B0A4A1A608E
:4000C000032001F0DBF90346012B0CD1064B1B6803F58053044A1360044B1B6803201946402201F0E1F9EBE7AC81FF1F0082FF1F80B500AF02F0C2FF03461B680C2B00D1BD
:40010000FEE7FEE780B586B000AF224B7B61224B3B61204B7B6135E03B691B68FB603B695B68BB603B699B683B6000237B600CE0FB681A68BB681A60BB680433BB60FB68A3
:400140000433FB607B6804337B607A683B689A42EED13B69DB683B6000237B6008E0BB6800221A60BB680433BB607B6804337B607A683B689A42F2D13B6910333B617B69BC
:40018000013B7B617B69002BC6D102F07DFFFFF779FFFEE7010000007833000080B582B000AF174B174A1A60174A174B1B6843F40073136000237B600FE07B68032B04D884
:4001C000124A7B6852F8233000E0114B11497A6841F822307B6801337B607B682F2BECD90D4B1B78DAB20D4B1A700D4B094A1A6000F046F90B4B00221A600837BD4680BD0E
:400200000CED00E00004FA0514ED00E000000000F10000000080FF1FBC7600400481FF1F08ED00E00081FF1F80B582B000AF78603960786800213A6802F057FF0837BD4635
:4002400080BD00BF80B584B000AFF860B9607A60F868B9687A6802F03DFF1037BD4680BD80B483B000AF0346FB71FEE780B487B000AF7860396000233B6100237B6127E007
:400280007B699B007A6813441B68BB60BB68FB73BB6823F0FF03BB6014E03B695B003A6813441B781A46BB68134419463B695B003A6813445B780B703B6901333B61FB7B1C
:4002C000013BFB73FB7B002BE7D17B6901337B617B69152BD4D91C37BD465DF8047B704780B582B000AF3C4B00221A803B4B50221A703B483B490422FFF7A4FF3A4B062207
:400300001A703A4B52221A70394B3A4A1278D2B21A70394B4FF4E1621A80384B41F251221A800023FB7019237B6014E0FB785B00DAB2334B1B78DBB203F00103DBB213433E
:40034000DBB203F00303FB704FF4F07002F02CFE7B68013B7B607B68002B02D0FB78032BE4D17B68002B02D10320FFF779FF254B4FF480721A80234B07221A70224B00223C
:400380001A70224B48221A701E4B00221A70204B00221A701F4B02221A701F4B04221A701E4A1E4B1B78DBB243F00103DBB213701B4A1B4B1B78DBB243F00103DBB213708A
:4003C000184A184B1B78DBB263F07F03DBB213700837BD4680BD00BF804000408240004000410040DC0000480043004000420040A14600400F010049224200402042004083
:400400002542004004400040064000400840004009400040014000400B400040A2430040A1430040A043004080B483B000AF0E4B1B78FB710D4AFB7903F00703DBB213703C
:400440000B4AFB791B09DBB213700A4B40221A70094B02221A70094B44221A700C37BD465DF8047B704700BFCF0100496E5800406F580040005B0040045B004076580040FA
:4004800080B582B000AF72B63B4A3B4B1B78DBB243F00403DBB213700023FB7113E0FA7913465B0013445B00344A13443B603B681A683B689B889BB210461946FFF7B4FE29
:4004C000FB790133FB71FB79062BE8D94FF090402B49FFF7CBFE2B4B0A221A702A4A2A4B1B78DBB243F00203DBB21370274A274B1B78DBB243F00203DBB21370244A244B9B
:400500001B78DBB243F04003DBB21370214A214B1B78DBB243F01003DBB213701E481F490822FFF78FFE1E481E490A22FFF78AFE1D481E490822FFF785FE1D481D49082272
:40054000FFF780FE1C4A1C4B1B78DBB243F00803DBB21370194B60221A70FFF7C1FE174B80221A70FFF760FF154809490E22FFF769FE0837BD4680BDE8460040003100006A
:4005800058000048835800400350014013500140A0430040C243004002510040B8000048F0510040C000004812510040CC00004822510040D4000048224300400048004011
:4005C000B043004080B582B002AF324B01221A70314B00221A70102000F0B8FB102000F09BFC1D20072100F007FD2C4B04221A702B4B00221A702B4B00221A702A4A2A4B27
:400600001B78DBB243F01803DBB21370274B00221A70274B00221A70264B00221A70264B0A221A70254B00221A70254B00221A70244B5B221A70244B5E221A70234B002205
:400640001A70234B14221A7001230093052049F25B114FF40042142300F0C4F91D4A0D4B1B78DBB2013B1C499B000B449B7813701A4A084B1B78DBB2013B174931F82330E7
:400680001380044B1B78DBB2184600F0FDF8BD4680BD00BF0C81FF1FF081FF1F96580040975800409E580040075B004093580040885B0040895B00408058004081580040E4
:4006C0008358004088580040895800408D580040014E00400E4E0040F481FF1F0C4E004080B582B000AF02F07EFC0346FB71444B1B78BB71434A434B1B78DBB243F001032A
:40070000DBB213703F4A3F4B1B78DBB243F01003DBB213703C4A3C4B1B78DBB243F00103DBB21370384A384B1B78DBB243F01003DBB21370354A354B1B78DBB243F00203DA
:40074000DBB21370324A324B1B78DBB243F00203DBB213702F4A2F4B1B78DBB243F00303DBB21370032000F00DFC284A274B1B78DBB223F00203DBB21370254A244B1B78F3
:40078000DBB223F00203DBB21370234A224B1B78DBB243F00603DBB21370204B7A221A701F4A1F4B1B78DBB243F00103DBB213701C4A1C4B1B78DBB243F00103DBB213703F
:4007C000194A194B1B78DBB243F00103DBB21370164A164B1B78DBB243F00103DBB21370134B4FF000521A60124B4FF000521A60FB79184602F0FBFB0837BD4680BD00BFDA
:400800000C81FF1FAA430040BA430040F8460040F9460040915800407758004082580040A1430040B1430040A2430040B243004080E200E000E100E080B500AF084B1B78D5
:40084000002B09D1074B1B78DBB2002B01D1FFF7B9FE034B01221A70FFF742FF80BD00BFF281FF1FF381FF1F80B400AF054A054B1B78DBB243F00103DBB21370BD465DF8C5
:40088000047B7047004E004080B582B000AF0346FB71364B00221A70FB79012B63D1344B78221A70334B00221A70334B0A221A70324B7F221A70324B00221A70314B7F22B9
:4008C0001A70314B00221A70304B00221A70304B00221A702F4B01221A702F4B50221A702E4B13221A702E4B2B221A702D4B00221A702D4B44221A702C4B48221A702C4B65
:4009000002221A702B4B02221A702B4B12221A702A4B28221A702A4BEB221A70442000F017F9284B58221A70274B00221A70274B02221A70264B02221A70264B00221A7007
:40094000254B00221A70254B4FF47A321A600120012100F03FF90720012100F021FA1D201F4900F021FB0837BD4680BDF181FF1F004E0040024E0040034E0040044E0040C2
:40098000054E0040064E0040084E0040094E00400A4E0040144E0040845800408558004086580040875800408A5800408B5800408C5800408E5800408F5800409058004055
:4009C0009158004094580040955800409A5800409B5800409C5800409D5800400482FF1FC90B000090B587B000AF0446084611461A462346FB710346BB800B467B801346B7
:400A0000BB7197F82830002B00F08A8097F82830012B00F28580FB79013B092B4AD801A252F823F04D0A0000B50A0000B50A00004D0A0000B50A0000B50A0000670A000053
:400A4000810A0000B50A00009B0A0000BB790F2B04D9364B1B78DBB2FB752EE0344B1B78DBB2FB7529E0BB790F2B04D9314B1B78DBB2FB7521E0304B1B78DBB2FB751CE0A6
:400A8000BB790F2B04D92D4B1B78DBB2FB7514E02B4B1B78DBB2FB750FE0BB790F2B04D9284B1B78DBB2FB7507E0274B1B78DBB2FB7502E00023FB7500BFBA8897F9173076
:400AC0005B0113443B617B883A6902FB03F3FB60FB68DB0BBB82BB790D2B11D8BB8ABA79C2F10E021341BB8297F82830013BBA790132D1B2154A9B0013440A469A7007E06E
:400B000097F82830013B114A9B0013440F229A7097F82830013B0D49BA8A21F8232002E0002000F023FA1C37BD4690BD180100491C010049190100491D0100491A01004949
:400B40001E0100491B0100491F010049F481FF1F80B584B000AF0346FB7102F044FA0346FB73164A154B1B78DBB243F00303DBB21370134A124B1B78DBB243F00303DBB22F
:400B80001370104AFB791370032000F0FBF90B4A0A4B1B78DBB223F00303DBB21370084A074B1B78DBB223F00303DBB21370FB7B184602F01CFA1037BD4680BDF846004099
:400BC000F94600409258004080B400AFBD465DF8047B704780B584B000AF03460A46FB8013467B7100F0CCF80346FB7300F0A2F80346BB81FA88BB899A4200F08780454BC7
:400C00001B78DBB203F00103FB72FB7B002B20D1BB89002B02D0FB88002B1AD1BB89002B0BD13D4AFB8813803C4A3C4B1B78DBB223F04003DBB2137068E0384A374B1B786A
:400C4000DBB243F04003DBB21370334AFB8813805CE0FB7A002B33D0314B00221A70314B01221A70304B00221A70304A2F4B1B78DBB203F07F03DBB21370284B1B78DBB24B
:400C800003F00803002B02D0FB88002B18D1284ABB891380224B07221A7000BF204B1B78DBB203F00103002BF8D11A4A194B1B78DBB223F00103DBB21370194B00221A70E5
:400CC000144B1B78DBB203F00103002B13D0184AFB881380124A7B79002B01D0032300E00123137000BF0E4B1B78DBB203F00103002BF8D10AE0084AFB8813800549054BEC
:400D00001B78DAB2FB7A1343DBB20B701037BD4680BD00BFA24300408040004082400040014000401040004014400040084000400240004080B400AF034B1B889BB2184626
:400D4000BD465DF8047B70478040004080B483B000AF0346FB71094B084A1278D2B2D1B2FA7922F00702D2B20A43D2B2D2B21A700C37BD465DF8047B704700BF8240004060
:400D800080B400AF054B1B78DBB203F00703DBB21846BD465DF8047B704700BF8240004080B584B000AF03460A46FB8013467B7100F0CCF80346FB7300F0A2F80346BB81BE
:400DC000FA88BB899A4200F08780454B1B78DBB203F00103FB72FB7B002B20D1BB89002B02D0FB88002B1AD1BB89002B0BD13D4AFB8813803C4A3C4B1B78DBB223F040036F
:400E0000DBB2137068E0384A374B1B78DBB243F04003DBB21370334AFB8813805CE0FB7A002B33D0314B00221A70314B01221A70304B00221A70304A2F4B1B78DBB203F0BF
:400E40007F03DBB21370284B1B78DBB203F00803002B02D0FB88002B18D1284ABB891380224B07221A7000BF204B1B78DBB203F00103002BF8D11A4A194B1B78DBB223F022
:400E80000103DBB21370194B00221A70144B1B78DBB203F00103002B13D0184AFB881380124A7B79002B01D0032300E00123137000BF0E4B1B78DBB203F00103002BF8D1F6
:400EC0000AE0084AFB8813800549054B1B78DAB2FB7A1343DBB20B701037BD4680BD00BFA143004000410040024100400140004014400040104000400840004002400040F3
:400F000080B400AF034B1B889BB21846BD465DF8047B70470041004080B483B000AF0346FB71094B084A1278D2B2D1B2FA7922F00702D2B20A43D2B2D2B21A700C37BD46EA
:400F40005DF8047B704700BF0241004080B400AF054B1B78DBB203F00703DBB21846BD465DF8047B704700BF0241004080B483B000AF0346FB7101BE0C37BD465DF8047BF5
:400F8000704700BF80B582B000AF0346FB80FB88044A127802FB03F3184602F005F80837BD4680BD1881FF1F80B584B000AF03463960FB710F4B1B68FB60FB791F2B02D9D9
:400FC0000020FFF7D3FFFB7903F01F0310339B00FA6813441B68BB60FB7903F01F0310339B00FA6813443A681A60BB6818461037BD4680BD08ED00E080B582B000AF0346D3
:401000000A46FB711346BB71BB79072B02D90020FFF7ACFFFB791F2B02D90020FFF7A6FFFB7903F01F0303F1604303F56443BA795201D2B21A700837BD4680BD80B483B0E0
:4010400000AF7860264B1B78DBB21A467B681A60244B1B78DBB21B027A6812681A437B681A60214B1B78DBB21B047A6812681A437B681A601D4B1B78DBB21B067A68126813
:401080001A437B681A607B680433194A1278D2B21A60184B1B78DBB21A027B6804337968043109680A431A60134B1B78DBB21A047B6804337968043109680A431A600F4B0C
:4010C0001B78DBB21A067B6804337968043109680A431A600C37BD465DF8047B704700BF0301004904010049EC46004002010049010100490001004905010049060100492B
:4011000080B582B000AF03460A46FB711346BB71084B1B78002B04D100F00EF8054B01221A70FA79BB791046194600F0CBF80837BD4680BDF881FF1F80B582B000AF01F00A
:4011400052FF0346FB714F4A4E4B1B78DBB243F00103DBB213704C4A4B4B1B78DBB243F00103DBB21370494B01221A70484B02221A70484A474B1B78DBB203F07F03DBB275
:4011800013700020FFF7FEFE434A434B1B78DBB223F00603DBB21370404A404B1B78DBB223F02003DBB213703B4A3B4B1B78DBB243F00103DBB213700120FFF7E3FE282006
:4011C000FFF7E0FE364A364B1B78DBB203F07F03DBB21370324A324B1B78DBB223F04003DBB213702C4A2C4B1B78DBB243F00203DBB213700220FFF7C5FE274A264B1B7851
:40120000DBB243F00403DBB21370264B00221A70254B00221A70FB79184601F0E8FE17200721FFF7E9FE17202049FFF7BDFE18200721FFF7E1FE18201D49FFF7B5FE1520B7
:401240000721FFF7D9FE15201A49FFF7ADFE00200721FFF7D1FE00201749FFF7A5FE01200721FFF7C9FE01201449FFF79DFE0C200721FFF7C1FE0C201149FFF795FE0837AE
:40128000BD4680BDA5430040B54300409D60004009600040106000409443004012600040F85100408460004085600040751C0000A1150000691C0000C11B0000151C000084
:4012C0002920000080B584B000AF03460A46FB711346BB710023FB7306E0FB7B314A0121D154FB7B0133FB73FB7B002BF5D02E4AFB7913702D4B00221A702D4B00221A701F
:401300002C4B00221A702C4B00221A702B4B00221A702B4B00221A702A4B00221A702A4B4FF400021A60284B4FF080721A60264B4FF400121A60244B01221A60224B0222D3
:401340001A60BB79002B02D0012B09D011E01F4A1E4B1B78DBB223F00103DBB2137011E01A4A1A4B1B78DBB243F00103DBB2137008E0164A154B1B78DBB243F00103DBB206
:40138000137000BF124B03221A70124B80221A70012001F009FE104B04221A701037BD4680BD00BFA882FF1F0D82FF1F1082FF1F2C82FF1F2F82FF1F2482FF1F2E82FF1F1A
:4013C0003182FF1F0C82FF1F00E100E00960004028600040086000401260004080B483B000AF0023FB7106E0FB79144A0121D154FB790133FB71FB79002BF5D0104B00224B
:401400001A70104B00221A700F4B00221A700F4B00221A700E4B00221A700E4B00221A700D4B00221A700D4B03221A700C4B80221A700C37BD465DF8047B7047A882FF1F5E
:401440001082FF1F2C82FF1F2F82FF1F2482FF1F2E82FF1F3182FF1F0C82FF1F286000400860004080B400AF034B1B78DBB21846BD465DF8047B70472F82FF1F80B483B02F
:4014800000AF0346FB71FA79064913465B0013449B000B445B78DBB218460C37BD465DF8047B70473482FF1FB0B485B000AF03463960FB711346BB80FB79002B66D0FB793B
:4014C000082B63D8B988FA79324813465B0013449B000344DB889BB2C3F5007399420BD9FA792C4913465B0013449B000B44DB889BB2C3F50073BB80274CF979BB881B0A89
:401500009BB2D8B2FA79234D13465B0013449B002B44DB78DBB20343DAB20B0123441A701D4AFB79B988C9B21B0113440A465A703B68002B13D00023FB810CE01748FB79FA
:40154000FA8939680A4412781B01034408331A70FB890133FB81FA89BB889A42EED3FA790C4913465B0013449B000B4400225A700948F979FA79074C13465B0013449B00D8
:4015800023445B79DAB20B0103449A701437BD46B0BC70473482FF1FFC5F00407060004080B582B000AF374B1B78BB71BB7903F01003002B63D00123FB71BB795BB2002B2C
:4015C00013DABB7903F00F03012B02D00023FB711DE000F061F82C4B1B78DBB2DBB25BB2002B14DA0023FB7111E0BB7903F04003002B02D000F094F809E0BB7903F0200312
:40160000002B02D000F0B2F801E00023FB71FB79002B34D01B4B1B78BB71BB795BB2002B2DDB1A4B1B78DAB2194B1B78DBB21343BB71184ABB791370164B1B78DBB2BA7910
:401640009A421CD1104B1B78FB710E4B1B78DBB223F07F03BB71BB79002B0AD1094B0A4A1278D2B21A70074B1B78DBB203F00F03FB71054B1B78DBB2FA799A42E2D10837FF
:40168000BD4680BD286000402D82FF1FA182FF1F3082FF1F2960004080B582B000AF1D4B1B78FB711B4AFB7913701A4B1B78FB71FB795BB2002B03DA174AFB79137025E058
:4016C000022000F043FA154B1B78DBB203F06003202B08D0402B0BD0002B0ED100F0AAFC0346FB710CE001F08BFC0346FB7107E001F020FC0346FB7102E00023FB7100BF15
:40170000FB79002B02D1044B03221A700837BD4680BD00BF286000402D82FF1F0060004080B500AF104B1B78DBB2062B19D801A252F823F0631700006317000051170000E9
:401740006317000057170000631700005D17000000F0FAF806E000F0A9F903E000F0D2F900E000BF80BD00BF1082FF1F80B500AF124B1B78DBB2062B1DD801A252F823F0C9
:40178000B7170000B71700009D170000B7170000A3170000B7170000A917000000F0DAF80AE000F029F907E0032000F0CFF9044B03221A7000E000BF80BD00BF1082FF1FFA
:4017C0002D82FF1F80B483B000AF0023FB71294B1B78DBB29AB2284B1B889BB213449AB2254B1A8015E02549FB79254A52681278D2B2CA54224B5B680133214A5360FB7965
:401800000133FB711E4B1B889BB2013B9AB21C4B1A801B4B1B889BB2002B02D0FB79072BE1D9144B1B78DBB2082B02D0FB79002B0FD0144B1B78DBB283F07F03DB43DAB253
:40184000104B1A70104B0F221A70104B02221A7005E00D4B02221A700C4B02221A700C4AFB791370034AFB7913700C37BD465DF8047B70470C82FF1F0E82FF1F0060004018
:401880001882FF1FA182FF1F2D82FF1F1082FF1F3082FF1F80B582B000AF164B1B889BB2002B02D100F02EF81EE0134B02221A70124B00221A7000F069F9114BDB79DBB2C5
:4018C0009BB21B029AB20E4B9B79DBB29BB21343FB80084B1B889BB2FA889A4202D2054AFB881380FFF76EFF012318460837BD4680BD00BF1882FF1F1082FF1FA182FF1F74
:401900000060004080B400AF0A4B02221A700A4B80221A70094B0F221A70094B00221A70084B00221A7001231846BD465DF8047B704700BF1082FF1FA182FF1F2D82FF1F05
:401940000C82FF1F3082FF1F80B500AFFFF73AFF80BD00BF80B500AF0A4B1B78DBB29AB2094B1B889BB213449AB2074B1A80074B00221A70012000F0E9F8054B03221A7075
:4019800080BD00BF0C82FF1F0E82FF1F1082FF1F2D82FF1F80B582B000AF124B04221A70114B80221A7000F0F1F8104BDB79DBB29BB21B029AB20D4B9B79DBB29BB2134342
:4019C000FB800B4B1B889BB2FA889A4202D2084AFB881380074B0B221A70012318460837BD4680BD1082FF1FA182FF1F006000401882FF1F2D82FF1F80B483B000AF002333
:401A0000BB71234B1B78DBB203F00F03DBB2023BFB71FB799AB21F4B1B889BB213449AB21C4B1A8018E01C4B5B681C49BA798A5CD2B21A70184B5B680133174A5360BB79A3
:401A40000133BB71FB79013BFB71134B1B889BB2013B9AB2104B1A800F4B1B889BB2002B02D0FB79002BDED10D4AFB7913700D4B1B78DBB283F07F03DB43DAB2094B1A7047
:401A8000094B0B221A700C37BD465DF8047B7047296000400E82FF1F1882FF1F006000403082FF1FA182FF1F2D82FF1F80B500AF044B00221A70012000F048F8024B0322FB
:401AC0001A7080BD1082FF1F2D82FF1F80B400AF084B06221A70084B06221A70074B80221A70074B00221A7001231846BD465DF8047B70471082FF1F2D82FF1FA182FF1F6B
:401B00003082FF1F80B500AF0C4B1B78DBB2002B0AD00B4A094B1B78DBB263F07F03DBB21370064B00221A70064B00221A70012000F00CF8044B03221A7080BD2E82FF1FAF
:401B4000086000401082FF1F2D82FF1F80B483B000AF0346FB710B4B9B68002B0CD0094B9B68FA791A70074B9B68074A128892B25A80044B00229A600C37BD465DF8047BDE
:401B8000704700BF1882FF1F0E82FF1F80B400AF094B00221A80094B9B68002B07D0074B9B6800221A70054B9B6800225A80BD465DF8047B704700BF0E82FF1F1882FF1FFA
:401BC00080B400AF104B04221A70104B93F832300F4B93F82430DBB203F00303012B0AD00B4B93F82730DBB283F07F03DB43DAB2074B83F82720064B012283F82520BD463B
:401C00005DF8047B704700BF0B600040FC5F00403482FF1F80B400AF104B08221A70104B93F842300F4B93F83030DBB203F00303012B0AD00B4B93F83330DBB283F07F035F
:401C4000DB43DAB2074B83F83320064B012283F83120BD465DF8047B704700BF0B600040FC5F00403482FF1F80B400AFBD465DF8047B704780B500AFFFF7B0FB80BD00BF01
:401C800080B582B000AF0023FB716C4B1B79BB716A4B1B78DBB2DBB25BB2002B6DDA674B5B78DBB2013B052B65D801A252F823F00F1D0000291D0000551D0000771D0000F4
:401CC000771D0000C91C00005C4BDB78DBB2212B0BD100F0BDF85A4B1B889BB2002B15D0FFF7D8FD0346FB7146E0544BDB78DBB2222B0BD100F0EAF8514B1B889BB2002B9B
:401D000004D0FFF7C7FD0346FB7135E034E000F025F94B4B1B889BB2002B04D0FFF7BAFD0346FB7128E027E0BB79002B11D1434B9B78DBB2002B0CD1414B01221A80BB793F
:401D4000404A13443E4A5360FFF7A4FD0346FB7112E011E0BB79002B0CD1394B01221A80BB79394A1344364A5360FFF793FD0346FB7101E000E000BF5AE0304B5B78DBB28A
:401D80000A2B11D00B2B3FD0092B00D050E000F0E5F82B4B1B889BB2002B04D0FFF7FAFD0346FB7144E043E0BB79002B2BD1234B9B78DBB2002B26D1BB79204AD278D1B283
:401DC000204AD154BB791F4AD35CDAB2BB791F49CB5CDBB29A4204D2BB791C4A0021D1540CE0BB79194AD35CDBB2012B06D9BB79BA7914498A5CD1B2144AD154FFF766FEC6
:401E00000346FB7114E013E0BB79002B0FD10B4B9B78DBB2012B0AD8BB79084A9278D1B2094AD154FFF752FE0346FB71FFE700BFFB7918460837BD4680BD00BF00600040E8
:401E40001882FF1FB082FF1FA882FF1FAC82FF1F80B584B000AF194B1B78DBB2013BDBB2184600F0C7FEF860154B1B79FB72FB7A0233DB00FA681344FB60FB685B68FB607B
:401E8000FB7A104AD35CDBB2DB00FA681344FB60FB685B68FB60FB682033FB60FB685B687B607B681B78DBB29AB2074B1A80064A7B6853601037BD4680BD00BF2F82FF1FDF
:401EC00000600040A082FF1F1882FF1F80B584B000AF1E4B1B78DBB2013BDBB2184600F089FEF8601A4B1B79FB72FB7A0233DB00FA681344FB60FB685B68FB60FB7A154A5F
:401F0000D35CDBB2DB00FA681344FB60FB685B68FB60FB681833FB60FB685B687B607B6801331B78DBB29BB21B029AB27B681B78DBB29BB213439AB2074B1A807B68023388
:401F4000054A53601037BD4680BD00BF2F82FF1F00600040A082FF1F1882FF1F80B584B000AF2D4B00221A802C4B1B78DBB2013BDBB2184600F03EFEF860294BDB78FB72F0
:401F8000274B1B79BB72BB7A0233DB00FA681344FB60FB685B68FB60BB7A002B38D1BB7A204AD35CDBB2DB00FA681344FB60FB685B68FB60FB7A002B2AD0FB7A032B27D8A4
:401FC000FB7A03F10053013BDB00FA681344FB60134B9B78FB72FB681B78FA7A9A4217D8FB685B687B60FA7A13465B0013449B001A467B6813447B607B685B68064A5360AE
:402000007B681A88044B1A807B689B68024A93601037BD4680BD00BF1882FF1F2F82FF1F00600040A082FF1F80B500AF00F0ACFF80BD00BF80B586B000AF0023FB759D4B50
:402040001B78FB7100233B619B4B00221A80FB795BB2002B80F20481964B5B78DBB20A2B00F2FC8001A252F823F000BFB52100005D2200005D2200005D2200005D220000E8
:402080005D220000992000005D220000272200005D2200003D220000864BDB78DBB2012B0ED100F0D1FDB860BB685B68824A5360814B12221A80FFF7EDFB0346FB7578E0C2
:4020C0007C4BDB78DBB2022B24D17A4B9B78DBB2184600F08FFDB860BB68002B69D0BB685B68754A5360744B5B6803331B78DBB29BB21B029AB2704B5B6802331B78DBB280
:402100009BB213439AB26C4B1A80FFF7C3FB0346FB75A4E0674BDB78DBB2032B44D10023FB73664B3B6109E03B691B78BB71BB793A6913443B61FB7B0133FB735D4B9B78D2
:40214000DBB2FA7B9A4204D23B691B78DBB2002BEAD1584B9B78DBB2EE2B01D1584B3B61544B9B78DBB2002B0BD0524B9B78DAB2544B1B7C9A4204D1534800F0A1F9524B6A
:402180003B613B691B78DBB2002B12D03B691B78DBB29AB2484B1A80474A3B695360FFF779FB0346FB755AE000F02AFF0346FB7555E054E0FB7903F00303002B1FD0022B41
:4021C00000D02FE03C4B02221A803A4B1B79DBB203F07F023D4913465B0013449B000B449B78DAB23A4B1A70394B00225A70324B374A5A60FFF74EFB0346FB7512E02E4BED
:4022000002221A80334B1B78DAB2314B1A70304B00225A70284B2E4A5A60FFF73BFB0346FB7500BF1BE0244B01221A80224B2A4A5A60FFF72FFB0346FB7510E01E4B012276
:402240001A801C4B1B79DBB21A46244B13441A4A5360FFF71FFB0346FB7500E000BF19E1144B5B78DBB2013B0A2B00F2128101A252F823F07F230000932400000924000062
:4022800093240000A1220000932400009324000093240000E5220000932400003B230000044B9B78DAB20E4B1A70FFF70FFC0346FB75EFE0006000401882FF1F8031000000
:4022C0001433000040310000FC82FF1F3482FF1FFC81FF1F3182FF1F2F82FF1FA082FF1F2E82FF1F6E4B9B787B717B79002B06D07B79013BDBB2184600F07CFCB8607B7931
:40230000002B02D0BB68002B02D17B79002B13D1644B1B78DBB27A799A4208D0614A7B791370614B01221A70012000F0C1F9FFF7CDFB0346FB75ADE0ACE000F0C3FD034637
:40234000002B1BD0564B1B793B71554B1B79DAB2564B1A703B79564AD35CDAB23B795549CB5CDBB29A4204D04F4B01221A7000F023FBFFF7ABFB0346FB758BE08AE0FB79C3
:4023800003F00303012B22D0012B0DD3022B00D039E0434B9B78DBB2002B04D100F0FAFC0346FB752FE02EE03D4B9B78DBB2012B0CD1414B1B78DBB223F00203DAB23E4BF0
:4023C0001A70FFF783FB0346FB751CE01BE0344B1B79DBB2002B15D1314B9B78DBB2DB43DBB22F4A1279D2B211461046334A125CD2B21340DAB2314B5A54FFF767FB034669
:40240000FB75FFE700BF45E0FB7903F00303012B22D0012B0DD3022B00D039E0204B9B78DBB2002B04D100F047FC0346FB752FE02EE01B4B9B78DBB2012B0CD11E4B1B7896
:40244000DBB243F00203DAB21B4B1A70FFF73EFB0346FB751CE01BE0114B1B79DBB2002B15D10F4B9B78DBB2DB43DBB20C4A1279D2B211461046114A125CD2B21340DAB2CB
:402480000E4B5A54FFF722FB0346FB75FFE700BF00E000BFFB7D18461837BD4680BD00BF006000402F82FF1F2C82FF1F2482FF1F1482FF1FA082FF1F3182FF1FA482FF1FD9
:4024C000B0B58AB000AF7860314B07F114041D460FCD0FC42B682370002387F826307B68002B52D07B6822221A707B68013303221A7007F10C031846FEF7A0FD022387F8B8
:4025000027303EE097F827307A68134497F8262007F128010A4412F81C2C1209D2B207F128010A4412F8142C1A7097F8273001337A68134400221A7097F8273002337A6893
:40254000134497F8262007F128010A4412F81C2C02F00F0207F128010A4412F8142C1A7097F8273003337A68134400221A7097F82630013387F8263097F82730043387F89D
:40258000273097F82730212BBCD92837BD46B0BD2C31000090B482B000AF0123FB7174E03F4AFB791B0113440C221A70FA793D4913465B0013449B000B445B79DBB2002B26
:4025C0001AD0FA79374913465B0013449B000B441B79DBB2DBB25BB2002B06DA324AFB791B0113440C229A700CE02F4AFB791B01134408229A7005E02B4AFB791B011344E7
:4026000080229A702648F979FA79264C13465B0013449B002344DB889BB2DAB20B0103449A711F48F979FA791E4C13465B0013449B002344DB889BB21B0A9BB2DAB20B0105
:402640000344DA711648F979FA79164C13465B0013449B002344DB889BB2DAB20B0103441A710F48F979FA790E4C13465B0013449B002344DB889BB21B0A9BB2DAB20B019F
:4026800003445A71FB790133FB71FB79082B87D9064BFF221A700837BD4690BC704700BF706000403482FF1FFC5F00400A60004080B588B000AF0346FB7100237B830023AF
:4026C000FB7743E0FA7FB64913465B0013449B000B4400221A70FA7FB14913465B0013449B000B4400229A70FA7FAD4913465B0013449B000B440022DA70FA7FA849134605
:402700005B0013449B000B44083300221A80FA7FA34913465B0013449B000B44083300229A70FA7F9E4913465B0013449B000B4400225A70FA7F9A4913465B0013449B0002
:402740000B4400225A71FB7F0133FB77FB7F082BB8D9FB79002B10D000237B770AE07B7F904A0021D1547B7F8F4A0021D1547B7F01337B777B7F002BF1D08C4B1B78DBB211
:40278000002B00F00981894B1B78DBB2013BDBB2184600F02FFA38613B695B68FB60FB6807331B7803F04003002B08D0804B1B78DBB243F00103DAB27D4B1A7007E07C4BCE
:4027C0001B78DBB223F00103DAB2794B1A703B6908333B613B691B78FB7701237B7790E03B695B687B610023BB7782E07A7F7B699B7803F07F039A4275D17A7F684913469A
:402800005B0013449B000B4408331B889AB27B699B889A420BD27A7F7B699888604913465B0013449B000B44083302461A807B691B781A465B4B9B5CDAB27B695B789A42C7
:4028400051D17A7F7B699878554913465B0013449B000B4402461A717A7F7B69D878504913465B0013449B000B4402461A707B69DB7803F00303FB727B699B78DBB25BB228
:40288000002B18DA7A7FFB7A012B01D1072000E00D20434913465B0013449B000B4402465A717A7F3E4913465B0013449B000B4401225A7017E07A7FFB7A012B01D10520DD
:4028C00000E00920364913465B0013449B000B4402465A717A7F324913465B0013449B000B4400225A707B6908337B61BB7F0133BB77BA7FFB7F9A42FFF478AF7B7F013381
:402900007B777B7F082B7FF66BAF3B695B687B6100237B7714E07B699B7803F07F027B6918781F4913465B0013449B000B44083302469A707B6908337B617B7F01337B77B9
:402940007A7FFB7F9A42E6D300F090F90246194B1A6000237B830123FB7718E0FA7F104913465B0013449B000B447A8BDA80FA7F0B4913465B0013449B000B4408331B883B
:402980009AB27B8B13447B83FB7F0133FB77FB7F082BE3D9FFF7FEFD2037BD4680BD00BF3482FF1FA082FF1F1482FF1F2F82FF1F3182FF1F2882FF1F90B585B000AF874B75
:4029C0001B78DBB2002B00F00681844B1B78DBB2013BDBB2184600F00DF978607B6808337B607B681B78FB707B685B68BB607C4B1B78BB700023FB73E8E0BB681B78BA78D0
:402A00009A4240F0DD80BB78764AD35CDAB2BB685B789A4240F0D480BB689B7803F07F037B70BB68DB7803F003033B707A786E4913465B0013449B000B440022DA707A787D
:402A4000BB689878684913465B0013449B000B4402461A717A78BB68D878634913465B0013449B000B4402461A707A78BB6898885D4913465B0013449B000B44083302467F
:402A80001A80BB689B78DBB25BB2002B18DA7A783B78012B01D1072000E00D20524913465B0013449B000B4402465A717A784E4913465B0013449B000B4401225A7017E0B3
:402AC0007A783B78012B01D1052000E00920464913465B0013449B000B4402465A717A78414913465B0013449B000B4400225A703E4A7B781B01134401229A703B48797882
:402B00007A78394C13465B0013449B00234408331B889BB21B0A9BB2DAB20B0103441A70324879787A78304C13465B0013449B00234408331B889BB2DAB20B0103445A7051
:402B40002B4879787A78284C13465B0013449B002344DB889BB2DAB20B0103449A71244879787A78204C13465B0013449B002344DB889BB21B0A9BB2DAB20B010344DA71D0
:402B80001B4879787A78184C13465B0013449B002344DB889BB2DAB20B0103441A71144879787A78104C13465B0013449B002344DB889BB21B0A9BB2DAB20B0103445A71D0
:402BC000BB680833BB60FB7B0133FB73FA7BFB789A42FFF412AF1437BD4690BD2F82FF1F2482FF1FA082FF1F3482FF1FFC5F00407060004080B485B000AF0346FB71104BB7
:402C00001B78DBB20F4ADB0013445B68FB60FB681033FB60FB681B78FA799A4202D30023FB6005E0FB79DB00FA6813445B68FB60FB6818461437BD465DF8047B704700BFCE
:402C40000D82FF1F0C33000080B400AF054B1B78DBB2054ADB0013445B681846BD465DF8047B70470D82FF1F0C33000080B584B000AF104B1B78DBB2013BDBB21846FFF749
:402C8000B9FFB860BB68002B0DD0BB685B681B79FB71FB790233DB00BA681344BB60BB685B68FB6001E00023FB60FB6818461037BD4680BD2F82FF1F80B582B000AF00232B
:402CC000FB71314B1B79DBB203F07F03BB71BB79002B53D0BB79082B50D8BA79B9792B480B465B000B449B0003449B78DBB243F00103D8B2254913465B0013449B000B44A0
:402D000002469A70BA79214913465B0013449B000B440022DA70BA79B9791C480B465B000B449B0003445B78DBB243F00203D8B2164913465B0013449B000B4402465A7015
:402D4000BA79124913465B0013449B000B441B79DBB2DBB25BB2002B06DA0D4ABB791B0113448D229A7005E0094ABB791B01134489229A70FEF7AAFE0346FB71FB7918469B
:402D80000837BD4680BD00BF006000403482FF1FFC5F004080B582B000AF0023FB71464B1B79DBB203F07F03BB71BB79002B7DD0BB79082B7AD8BA79B97940480B465B00D0
:402DC0000B449B0003449B78DBB223F00103D8B23A4913465B0013449B000B4402469A70BA79364913465B0013449B000B440022DA70334ABB791B0113447F221A70BA7902
:402E0000B9792E480B465B000B449B0003445B78DBB223F00203D8B2284913465B0013449B000B4402465A70BA79244913465B0013449B000B441B79DBB2DBB25BB2002B18
:402E400018DABA791D4913465B0013449B000B445B78DBB2012B06D1194ABB791B0113440C229A701EE0164ABB791B0113440D229A7017E0BA79114913465B0013449B00C5
:402E80000B445B78DBB2012B06D10D4ABB791B01134408229A7005E0094ABB791B01134409229A70FEF712FE0346FB71FB7918460837BD4680BD00BF006000403482FF1FDC
:402EC000FC5F004080B584B000AF0023FB73154B1B79BB73144B1B78DBB2013BDBB21846FFF788FEB860BB685B681B79FB71BA7BFB799A4202D9BB7B012B0ED8BB7BBA7B39
:402F00000A498A5CD1B20A4AD154BB7B054A9278D1B2064AD1540123FB73FB7B18461037BD4680BD006000402F82FF1FA082FF1F1482FF1F80B582B000AF0023FB710F4B86
:402F40001B78DBB2DBB25BB2002B12DA0B4B5B78DBB2012B00D00CE0094B0A4A5A60094B1B789AB2064B1A80FEF794FC0346FB7100BFFB7918460837BD4680BD0060004078
:402F80001882FF1F2833000080B400AF054B1B78DBB203F040039B09DBB21846BD465DF8047B70478F450040142816D902B4012114381049097811F0C001890904B40E4AB7
:402FC000515C04BC00BF00BF00BF8841FDD500BF00BF02BC704700BF00BF70F10400FCD570470B050709EFF3108072B6704780F31088704700480040E22F0000AFF3008040
:4030000080B582B000AF1A4B1B78DBB203F00303012B02D0022B04D012E0154B1B79BB7111E0134B1B79DBB203F07F02114913465B0013449B000B4408339B78BB7102E05C
:403040000023BB7100BF0C4B1A68BB7913441B78032B04D1FEF714FE0346FB7102E00023FB7100BFFB7918460837BD4680BD00BF006000403482FF1F2882FF1F014B186844
:40308000704700BF8081FF1F0E4B70B51E460E4C0025E41AA410A54204D056F8253098470135F8E700F056F9084B094C1E46E41AA4100025A54204D056F825309847013581
:4030C000F8E770BD6033000060330000603300006833000010B5431E0A44914204D011F8014B03F8014FF8E710BD03460244934202D003F8011BFAE7704700000000000024
:40310000305100404000C0510040100000000140001000140140000800400140000A004C014000020050014020000000303132333435363738394142434445460000000012
:403140001201000202000008B40432F2010006058001000009022900010101803209040000020300000509211101000122260007058303400001070504034000010000001B
:40318000040309042C0343007900700072006500730073002000530065006D00690063006F006E0064007500630074006F0072003803430044004300200043006F006D0020
:4031C0006D0075006E00690063006100740069006F006E00200049006E007400650072006600610063006500260343004400430020004400610074006100200049006E0083
:4032000074006500720066006100630065001003550053004200550041005200540018034100430041005000430075007200720065006E0074000E0343006F0073006900C9
:403240006E006500000000000203000026000600FF0901A10119002940150026FF0075089540910019002940150026FF00750895408100C00000000041000000B882FF1F18
:403280002083FF1F410000002483FF1FB482FF1F000000007832000000000000843200000000000000000000010000004C32000001000000663100000100000090320000B9
:4032C0000000830340000300000004034000030003000000010000005431000002000000C032000001000000B832000000000000D0320000010000004031000000000000DF
:403300000000000001000000D432000001000000F432000012034D0053004600540031003000300001000000280000000001040001000000000000000001435955534200C9
:403340000000303030303100000000000000000043000000F8B500BFF8BC08BC9E4670474D0000009D010000F8B500BFF8BC08BC9E46704729000000883300000881FF1FA5
:4033800080000000E0010000000000000100000000366E01C05D0000180000000000E02E0000000000000000000000000000000000000000000000000000000000000000C3
:4033C000503300000000000000000000000000000000000000000000000000000000000000000000000000000000000000000000000000000000000000000000000000004A
:403400002081FF1F000000000000000000000000000000000000000000000000000000000000000000000000000000000000000000000000000000000000000000000000CD
:40344000000000000000000000000000000000000000000000000000000000000000000000000000000000000000000000000000000000000000000000000000000000004C
:40348000000000000000000000000000000000000000000000000000000000000000000000000000000000000000000000000000000000000000000000000000000000000C
:4034C00000000000000000000000000000000000000000000000000000000000000000000000000000000000000000000000000000000000000000000000000000000000CC
:40350000000000000000000000000000000000000000000000000000000000000000000000000000000000000000000000000000000000000000000000000000000000008B
:020000040003F7
:0200000480007A
:40000000014500400152004001090140040A0140010B0140011501400217014002190140011B014003400140024101400242014002430140024401400145014003460140AB
:40004000064701400648014001490140034C0140024D0140015101407E027C40B502B802BE01D804DF011D02EC10EA02EE04EA02EE04EC1033803720CC309F20A7809F207F
:40008000A7809F20A7807C01DE01940145089401D0010B020F04A508B401C203EC082510AB80AF20C820EA40EE20B510A508AB01AF04B508EC08000A000000000000C400B5
:4000C0004000000000000000E0000000000B0B0000000000000000000000220007001801000000000000000000000000000000000000000000000000000000000000000088
:4001000000000000000000000000000000000000000000000000000000000000000000000000000000000000000000000000000000000000000000000000000000000000BF
:40014000000000000000000000000000000000000000000000000000000000000000000000000000000000000000000000000000000000000000000000000000000000007F
:40018000000000000000000000000000000000000000000000000000000000000000000000000000000000000000000000000000000000000000000000000000000000003F
:4001C00000000000000000000000000000000000000000000000000000000000000000000000000000000000000000000000000000000000000000000000000000000000FF
:0200000490006A
:0400000000004005B7
:0200000490105A
:04000000BC90ACAF55
:0200000490303A
:0200000010529C
:0200000490402A
:4000000000000000000000000000000000000000000000000000000000000000000000000000000000000000000000000000000000000000000000000000000000000000C0
:400040000000000000000000000000000000000000000000000000000000000000000000000000000000000000000000000000000000000000000000000000000000000080
:400080000000000000000000000000000000000000000000000000000000000000000000000000000000000000000000000000000000000000000000000000000000000040
:4000C0000000000000000000000000000000000000000000000000000000000000000000000000000000000000000000000000000000000000000000000000000000000000
:0200000490501A
:0C00000000012E16106900012E2920BB03
:00000001FF