:400000000080002011000000650100006501000080B500AF024A034B1B68136000F0D4F8BC760040FA46004010B5054C237833B9044B13B10448AFF300800123237010BD7F
:40004000A881FF1F000000003C440000084B10B51BB108480849AFF300800848036803B910BD074B002BFBD0BDE81040184700BF000000003C440000AC81FF1F0881FF1F01
:400080000000000080B592B000AF62B60020012101F0A0FB00BF01F05BFD0346002BFAD001F0C2FE00F020FF00F036FC00F04CFC0020002100F028FF244800F05BFF0320A3
:4000C0002349032201F066FD012000F04DFC0346002B3AD000F070FC7864786C00F0C0FC0346002B00DA0733DB107B643B46184618497A6C03F098FD386400BF01F01EFF12
:400100000346002BFAD03B6C9BB23A461046194601F0DEFE7B6C9AB20F4B1A800F4B65221A800D4B1B88DAB2094B1A700B4B1B88DAB2074B5A700A4B1B78DAB2044B9A7016
:4001400003200349032201F025FDBDE740440000CC81FF1F4C440000C881FF1FCA81FF1FCF81FF1F80B500AF03F01EFD03461B680C2B00D1FEE7FEE780B584B000AF7860F7
:400180000F4B1A687B6813441A460E4BD31A802B09DC0B4B1B68FB60094B1A687B681344074A136007E003F0FFFC02460C2313604FF0FF33FB60FB6818461037BD4680BD18
:4001C0000C81FF1FE082FF1F80B586B000AF224B7B61224B3B61204B7B6135E03B691B68FB603B695B68BB603B699B683B6000237B600CE0FB681A68BB681A60BB68043300
:40020000BB60FB680433FB607B6804337B607A683B689A42EED13B69DB683B6000237B6008E0BB6800221A60BB680433BB607B6804337B607A683B689A42F2D13B691033FD
:400240003B617B69013B7B617B69002BC6D103F0B1FCFFF717FFFEE7010000003C47000080B582B000AF174B174A1A60174A174B1B6843F40073136000237B600FE07B68A5
:40028000032B04D8124A7B6852F8233000E0114B11497A6841F822307B6801337B607B682F2BECD90D4B1B78DAB20D4B1A700D4B094A1A6000F054F90B4B00221A60083775
:4002C000BD4680BD0CED00E00004FA0514ED00E000000000650100000080FF1FBC7600400481FF1F08ED00E00081FF1F80B582B000AF78603960786800213A6803F08BFCD0
:400300000837BD4680BD00BF80B584B000AFF860B9607A60F868B9687A6803F071FC1037BD4680BD80B483B000AF0346FB71FEE780B487B000AF7860396000233B610023B5
:400340007B6127E07B699B007A6813441B68BB60BB68FB73BB6823F0FF03BB6014E03B695B003A6813441B781A46BB68134419463B695B003A6813445B780B703B6901338A
:400380003B61FB7B013BFB73FB7B002BE7D17B6901337B617B69152BD4D91C37BD465DF8047B704780B582B000AF3C4B00221A803B4B50221A703B483B490422FFF7A4FFE1
:4003C0003A4B06221A703A4B52221A70394B3A4A1278D2B21A70394B4FF4E1621A80384B41F251221A800023FB7019237B6014E0FB785B00DAB2334B1B78DBB203F00103B4
:40040000DBB21343DBB203F00303FB704FF4F07003F05AFB7B68013B7B607B68002B02D0FB78032BE4D17B68002B02D10320FFF779FF254B4FF480721A80234B07221A70FB
:40044000224B00221A70224B48221A701E4B00221A70204B00221A701F4B02221A701F4B04221A701E4A1E4B1B78DBB243F00103DBB213701B4A1B4B1B78DBB243F001034A
:40048000DBB21370184A184B1B78DBB263F07F03DBB213700837BD4680BD00BF804000408240004000410040E40000480043004000420040A14600400F010049224200404C
:4004C000204200402542004004400040064000400840004009400040014000400B400040A2430040A1430040A043004080B483B000AF124B1B78FB71114AFB7903F00703E2
:40050000DBB213700F4AFB791B09DBB213700E4B80221A700D4B80221A700D4B02221A700C4B80221A700C4B02221A700B4B44221A700C37BD465DF8047B7047CF010049E3
:400540006E5800406F5800400D510040835A0040845A0040005B0040045B00407658004080B582B000AF72B63B4A3B4B1B78DBB243F00403DBB213700023FB7113E0FA79A5
:4005800013465B0013445B00344A13443B603B681A683B689B889BB210461946FFF7A6FEFB790133FB71FB79062BE8D94FF090402B49FFF7BDFE2B4B0A221A702A4A2A4B1B
:4005C0001B78DBB243F00203DBB21370274A274B1B78DBB243F00203DBB21370244A244B1B78DBB243F04003DBB21370214A214B1B78DBB243F01003DBB213701E481F49AA
:400600000822FFF781FE1E481E490A22FFF77CFE1D481E490822FFF777FE1D481D490822FFF772FE1C4A1C4B1B78DBB243F00803DBB21370194B60221A70FFF7B3FE174B42
:4006400080221A70FFF752FF154809490E22FFF75BFE0837BD4680BDE84600405444000058000048835800400350014013500140A0430040C243004002510040C00000485E
:40068000F0510040C800004812510040D400004822510040DC0000482243004000480040B043004080B582B002AF324B01221A70314B00221A70102000F090FE102000F07B
:4006C00073FF1D20072101F001F82C4B04221A702B4B00221A702B4B00221A702A4A2A4B1B78DBB243F01803DBB21370274B00221A70274B00221A70264B00221A70264B9D
:400700000A221A70254B00221A70254B00221A70244B5B221A70244B5E221A70234B00221A70234B14221A7001230093052049F25B114FF40042142300F09CFA1D4A0D4B10
:400740001B78DBB2013B1C499B000B449B7813701A4A084B1B78DBB2013B174931F823301380044B1B78DBB2184600F0D5F9BD4680BD00BF1081FF1FD081FF1F96580040E0
:40078000975800409E580040075B004093580040885B0040895B004080580040815800408358004088580040895800408D580040014E00400E4E0040D481FF1F0C4E0040D6
:4007C00080B582B000AF03F09EF90346FB71444B1B78BB71434A434B1B78DBB243F00103DBB213703F4A3F4B1B78DBB243F01003DBB213703C4A3C4B1B78DBB243F00103E7
:40080000DBB21370384A384B1B78DBB243F01003DBB21370354A354B1B78DBB243F00203DBB21370324A324B1B78DBB243F00203DBB213702F4A2F4B1B78DBB243F0030319
:40084000DBB21370032000F007FF284A274B1B78DBB223F00203DBB21370254A244B1B78DBB223F00203DBB21370234A224B1B78DBB243F00603DBB21370204B7A221A7026
:400880001F4A1F4B1B78DBB243F00103DBB213701C4A1C4B1B78DBB243F00103DBB21370194A194B1B78DBB243F00103DBB21370164A164B1B78DBB243F00103DBB2137074
:4008C000134B4FF000521A60124B4FF000521A60FB79184603F01BF90837BD4680BD00BF1081FF1FAA430040BA430040F8460040F9460040915800407758004082580040A8
:40090000A1430040B1430040A2430040B243004080E200E000E100E080B500AF084B1B78002B09D1074B1B78DBB2002B01D1FFF7B9FE034B01221A70FFF742FF80BD00BFE9
:40094000D281FF1FD381FF1F80B400AF054A054B1B78DBB243F00103DBB21370BD465DF8047B7047004E004080B485B000AF0346FB710E4B1B78DBB2002B03D00C4B1B7861
:40098000FB7305E00B4B1B78DBB203F00103FB73FB7B012B02D0FB79002BEAD0FB7B18461437BD465DF8047B704700BFD181FF1FD081FF1F014E004080B483B000AF224BDF
:4009C0001B78DBB203F00303FB70FB78012B0BD81E4B1B889BB27B607B681B041C4A128892B213437B6020E0FB78022B12D1174B1B889BB27B607B681B04154A1278D2B227
:400A000013437B60134B1B78DBB21B027A6813437B600AE00E4B1B889BB27B600B4B1B889BB21B047A6813437B600B4B1B78DBB2002B02D0094B00221A707B6818460C375A
:400A4000BD465DF8047B7047144E0040124E0040104E0040114E0040D181FF1FD081FF1F80B487B000AF7860274B1B78DBB2012B02D11423FB7311E0234B1B78DBB2022BB6
:400A800002D11023FB7309E01F4B1B78DBB2032B02D11023FB7301E01023FB73FB7B102B02D0142B06D00CE047F612237B6120233B610BE04FF4FA637B614FF4FA733B61C7
:400AC00004E0124B7B6101233B6100BF104B1A683B6992FBF3F33B617B697A6802FB03F23B6992FBF3F20B4B1B68796901FB03F13B6991FBF3F3D31ABB60BB6818461C375F
:400B0000BD465DF8047B70471081FF1F40420F00E881FF1FEC81FF1F80B582B000AF0346FB71364B00221A70FB79012B63D1344B78221A70334B00221A70334B0A221A7008
:400B4000324B7F221A70324B00221A70314B7F221A70314B00221A70304B00221A70304B00221A702F4B01221A702F4B50221A702E4B13221A702E4B2B221A702D4B0022C8
:400B80001A702D4B44221A702C4B48221A702C4B02221A702B4B02221A702B4B12221A702A4B28221A702A4BEB221A70442000F017F9284B58221A70274B00221A70274B9B
:400BC00002221A70264B02221A70264B00221A70254B00221A70254B4FF47A321A600120012100F03FFB0720012100F021FC1D201F4900F043FD0837BD4680BDD181FF1F8F
:400C0000004E0040024E0040034E0040044E0040054E0040064E0040084E0040094E00400A4E0040144E0040845800408558004086580040875800408A5800408B5800402A
:400C40008C5800408E5800408F580040905800409158004094580040955800409A5800409B5800409C5800409D580040E881FF1F590E000090B587B000AF04460846114683
:400C80001A462346FB710346BB800B467B801346BB7197F82830002B00F08A8097F82830012B00F28580FB79013B092B4AD801A252F823F0DD0C0000450D0000450D000001
:400CC000DD0C0000450D0000450D0000F70C0000110D0000450D00002B0D0000BB790F2B04D9364B1B78DBB2FB752EE0344B1B78DBB2FB7529E0BB790F2B04D9314B1B78E0
:400D0000DBB2FB7521E0304B1B78DBB2FB751CE0BB790F2B04D92D4B1B78DBB2FB7514E02B4B1B78DBB2FB750FE0BB790F2B04D9284B1B78DBB2FB7507E0274B1B78DBB2AB
:400D4000FB7502E00023FB7500BFBA8897F917305B0113443B617B883A6902FB03F3FB60FB68DB0BBB82BB790D2B11D8BB8ABA79C2F10E021341BB8297F82830013BBA7976
:400D80000132D1B2154A9B0013440A469A7007E097F82830013B114A9B0013440F229A7097F82830013B0D49BA8A21F8232002E0002000F023FC1C37BD4690BD1801004911
:400DC0001C010049190100491D0100491A0100491E0100491B0100491F010049D481FF1F80B584B000AF0346FB7102F08CFE0346FB73164A154B1B78DBB243F00303DBB210
:400E00001370134A124B1B78DBB243F00303DBB21370104AFB791370032000F01DFC0B4A0A4B1B78DBB223F00303DBB21370084A074B1B78DBB223F00303DBB21370FB7B39
:400E4000184602F064FE1037BD4680BDF8460040F94600409258004080B400AFBD465DF8047B704780B500AF282000F0D3FB032000F0C8F9052000F0CDFB032000F0C2F938
:400E80000F2000F0C7FB032000F0BCF9012000F0C1FB022000F0B6F9052000F0BBFB062000F09EF80E2000F09BF82C2000F098F8082000F095F8012000F092F80C2000F0AB
:400EC0008FF8032000F08CF8052000F0A3FB80BD80B500AF0C2000F083F8024B01221A7080BD00BFD881FF1F80B500AF054B1B78002B04D1FFF7B6FF024B01221A70FFF79A
:400F0000E7FF80BDD981FF1F80B582B000AF03460A46FB711346BB71FB79032B26D801A252F823F0350F0000430F0000510F00005F0F0000BB79803BDBB2184600F050F860
:400F400015E0BB79403BDBB2184600F049F80EE0BB796C3BDBB2184600F042F807E0BB792C3BDBB2184600F03BF800E000BF0837BD4680BD80B584B000AF78600123FB73A3
:400F80007B681B78BB730BE0BB7B184600F00EF8FB7B7A6813441B78BB73FB7B0133FB73BB7B002BF0D11037BD4680BD80B584B000AF0346FB7100F02DF8FB791B09FB73FF
:400FC000FB7B184600F0E2F8FB7903F00F03FB73FB7B184600F0DAF81037BD4680BD00BF80B584B000AF0346FB7100F013F8FB791B09FB73FB7B184600F004F9FB7903F09A
:401000000F03FB73FB7B184600F0FCF81037BD4680BD00BF80B582B000AF4FF4CA737B60554A554B1B78DBB223F07F03DBB21370524B1B78DBB223F00F03FB704F4AFB7864
:4010400043F00F03DBB213704D4B1B78DBB223F00F03FB704A4AFB7813704A4B1B78DBB223F00F03FB70474AFB781370424A424B1B78DBB223F02003DBB213703E4A3E4BED
:401080001B78DBB243F04003DBB21370002000F0E3FA394A384B1B78DBB243F01003DBB21370012000F0D8FA374B1B78FB70324A314B1B78DBB223F01003DBB21370002050
:4010C00000F0CAFAFB7803F00803FB702A4A2A4B1B78DBB243F01003DBB21370012000F0BBFA254A244B1B78DBB223F01003DBB21370FB78002B02D10A2000F0ADFA7B68F2
:40110000013B7B60FB78002B02D07B68002BBDD1194A194B1B78DBB223F04003DBB21370154A154B1B78DBB223F07F03DBB21370124A124B1B78DBB223F00F03DBB21370AD
:401140000F4B1B78DBB223F00F03FB700C4AFB7843F00F03DBB213700A4B1B78DBB223F00F03FB70074AFB7843F00F03DBB213700837BD4680BD00BF205100402251004087
:4011800023510040245100402151004080B582B000AF0346FB711A4A194B1B78DBB243F02003DBB21370164A154B1B78DBB223F04003DBB21370002000F04EFA104A104BA8
:4011C0001B78DBB223F00F03DBB213700C490C4B1B78DAB2FB791343DBB243F01003DBB20B70012000F038FA054A054B1B78DBB223F01003DBB213700837BD4680BD00BFB4
:401200002051004080B582B000AF0346FB71144A134B1B78DBB223F06003DBB21370104A0F4B1B78DBB223F00F03DBB213700C490B4B1B78DAB2FB791343DBB243F0100360
:40124000DBB20B70012000F007FA054A044B1B78DBB223F01003DBB213700837BD4680BD2051004080B584B000AF03460A46FB8013467B7100F0CCF80346FB7300F0A2F8CA
:401280000346BB81FA88BB899A4200F08780454B1B78DBB203F00103FB72FB7B002B20D1BB89002B02D0FB88002B1AD1BB89002B0BD13D4AFB8813803C4A3C4B1B78DBB27B
:4012C00023F04003DBB2137068E0384A374B1B78DBB243F04003DBB21370334AFB8813805CE0FB7A002B33D0314B00221A70314B01221A70304B00221A70304A2F4B1B7825
:40130000DBB203F07F03DBB21370284B1B78DBB203F00803002B02D0FB88002B18D1284ABB891380224B07221A7000BF204B1B78DBB203F00103002BF8D11A4A194B1B787D
:40134000DBB223F00103DBB21370194B00221A70144B1B78DBB203F00103002B13D0184AFB881380124A7B79002B01D0032300E00123137000BF0E4B1B78DBB203F0010385
:40138000002BF8D10AE0084AFB8813800549054B1B78DAB2FB7A1343DBB20B701037BD4680BD00BFA2430040804000408240004001400040104000401440004008400040BD
:4013C0000240004080B400AF034B1B889BB21846BD465DF8047B70478040004080B483B000AF0346FB71094B084A1278D2B2D1B2FA7922F00702D2B20A43D2B2D2B21A706B
:401400000C37BD465DF8047B704700BF8240004080B400AF054B1B78DBB203F00703DBB21846BD465DF8047B704700BF8240004080B584B000AF03460A46FB8013467B711F
:4014400000F0CCF80346FB7300F0A2F80346BB81FA88BB899A4200F08780454B1B78DBB203F00103FB72FB7B002B20D1BB89002B02D0FB88002B1AD1BB89002B0BD13D4A07
:40148000FB8813803C4A3C4B1B78DBB223F04003DBB2137068E0384A374B1B78DBB243F04003DBB21370334AFB8813805CE0FB7A002B33D0314B00221A70314B01221A70CE
:4014C000304B00221A70304A2F4B1B78DBB203F07F03DBB21370284B1B78DBB203F00803002B02D0FB88002B18D1284ABB891380224B07221A7000BF204B1B78DBB203F061
:401500000103002BF8D11A4A194B1B78DBB223F00103DBB21370194B00221A70144B1B78DBB203F00103002B13D0184AFB881380124A7B79002B01D0032300E0012313709F
:4015400000BF0E4B1B78DBB203F00103002BF8D10AE0084AFB8813800549054B1B78DAB2FB7A1343DBB20B701037BD4680BD00BFA143004000410040024100400140004077
:401580001440004010400040084000400240004080B400AF034B1B889BB21846BD465DF8047B70470041004080B483B000AF0346FB71094B084A1278D2B2D1B2FA7922F0E8
:4015C0000702D2B20A43D2B2D2B21A700C37BD465DF8047B704700BF0241004080B400AF054B1B78DBB203F00703DBB21846BD465DF8047B704700BF0241004080B483B0FA
:4016000000AF0346FB7101BE0C37BD465DF8047B704700BF80B582B000AF786008E00C4B1B68184602F050FA7B68A3F500437B607B68B3F5004FF2D8064B1B687A6802FBBD
:4016400003F3184602F040FA0837BD4680BD00BF2081FF1F1881FF1F80B582B000AF0346FB80FB88044A127802FB03F3184602F02BFA0837BD4680BD1C81FF1F80B584B0F6
:4016800000AF03463960FB710F4B1B68FB60FB791F2B02D90020FFF7B1FFFB7903F01F0310339B00FA6813441B68BB60FB7903F01F0310339B00FA6813443A681A60BB6879
:4016C00018461037BD4680BD08ED00E080B582B000AF03460A46FB711346BB71BB79072B02D90020FFF78AFFFB791F2B02D90020FFF784FFFB7903F01F0303F1604303F566
:401700006443BA795201D2B21A700837BD4680BD80B483B000AF7860264B1B78DBB21A467B681A60244B1B78DBB21B027A6812681A437B681A60214B1B78DBB21B047A6864
:4017400012681A437B681A601D4B1B78DBB21B067A6812681A437B681A607B680433194A1278D2B21A60184B1B78DBB21A027B6804337968043109680A431A60134B1B7879
:40178000DBB21A047B6804337968043109680A431A600F4B1B78DBB21A067B6804337968043109680A431A600C37BD465DF8047B704700BF0301004904010049EC46004077
:4017C000020100490101004900010049050100490601004980B582B000AF03460A46FB711346BB71084B1B78002B04D100F00EF8054B01221A70FA79BB791046194600F0A4
:40180000D5F80837BD4680BDDA81FF1F80B582B000AF02F078F90346FB71534A524B1B78DBB243F00103DBB21370504A4F4B1B78DBB243F00103DBB213704D4B01221A7034
:401840004C4B02221A704C4A4B4B1B78DBB203F07F03DBB213700020FFF7FEFE474A474B1B78DBB223F00603DBB21370444A444B1B78DBB223F02003DBB213703F4A3F4B3B
:401880001B78DBB243F00103DBB213700120FFF7E3FE2820FFF7E0FE3A4A3A4B1B78DBB203F07F03DBB21370364A364B1B78DBB223F04003DBB21370304A304B1B78DBB263
:4018C00043F00203DBB213700220FFF7C5FE2B4A2A4B1B78DBB243F00403DBB213702A4B00221A70294B00221A70FB79184602F00EF917200721FFF7E9FE17202449FFF78F
:40190000BDFE18200721FFF7E1FE18202149FFF7B5FE15200721FFF7D9FE15201E49FFF7ADFE00200721FFF7D1FE00201B49FFF7A5FE01200721FFF7C9FE01201849FFF75D
:401940009DFE02200721FFF7C1FE02201549FFF795FE0C200721FFF7B9FE0C201249FFF78DFE0837BD4680BDA5430040B54300409D6000400960004010600040944300402F
:4019800012600040F8510040846000408560004009270000F51F0000FD260000152600005D260000A9260000BD2A000080B584B000AF03460A46FB711346BB710023FB7395
:4019C00006E0FB7B324A0121D154FB7B0133FB73FB7B022BF5D92F4AFB7913702E4B00221A702E4B00221A702D4B00221A702D4B00221A702C4B00221A702C4B00221A70F7
:401A00002B4B00221A702B4B4FF400021A60294B4FF080721A60274B4FF400121A60254B01221A60234B02221A60224B04221A60BB79002B02D0012B09D011E01E4A1E4BD1
:401A40001B78DBB223F00103DBB2137011E01A4A194B1B78DBB243F00103DBB2137008E0154A154B1B78DBB243F00103DBB2137000BF124B03221A70114B80221A7001207D
:401A800002F022F80F4B04221A701037BD4680BDA482FF1F0982FF1F0C82FF1F2882FF1F2B82FF1F2082FF1F2A82FF1F2D82FF1F0882FF1F00E100E009600040286000402C
:401AC000086000401260004080B483B000AF0023FB7106E0FB79144A0121D154FB790133FB71FB79022BF5D9104B00221A70104B00221A700F4B00221A700F4B00221A704B
:401B00000E4B00221A700E4B00221A700D4B00221A700D4B03221A700C4B80221A700C37BD465DF8047B7047A482FF1F0C82FF1F2882FF1F2B82FF1F2082FF1F2A82FF1F2F
:401B40002D82FF1F0882FF1F286000400860004080B400AF034B1B78DBB21846BD465DF8047B70472B82FF1F80B483B000AF0346FB71FA79064913465B0013449B000B44F6
:401B80005B78DBB218460C37BD465DF8047B70473082FF1FB0B485B000AF03463960FB711346BB80FB79002B66D0FB79082B63D8B988FA79324813465B0013449B000344CA
:401BC000DB889BB2C3F5007399420BD9FA792C4913465B0013449B000B44DB889BB2C3F50073BB80274CF979BB881B0A9BB2D8B2FA79234D13465B0013449B002B44DB78E9
:401C0000DBB20343DAB20B0123441A701D4AFB79B988C9B21B0113440A465A703B68002B13D00023FB810CE01748FB79FA8939680A4412781B01034408331A70FB89013339
:401C4000FB81FA89BB889A42EED3FA790C4913465B0013449B000B4400225A700948F979FA79074C13465B0013449B0023445B79DAB20B0103449A701437BD46B0BC704718
:401C80003082FF1FFC5F00407060004090B482B000AF0346FB71FB79002B19D0FB79082B16D8FA790C4913465B0013449B000B4400225A700948F979FA79074C13465B00CC
:401CC00013449B0023445B79DAB20B0103449A700837BD4690BC70473082FF1FFC5F004080B582B000AF0023FB71324B1B79DBB2184600F069F80346BB712E4B1B78DBB21E
:401D0000DBB25BB2002B16DA2A4B5B78DBB2212B00D00FE0284B07221A80BA791346DB009B1A264A1344244A536000F0DDFA0346FB7100BF38E01F4B5B78DBB2202B02D09A
:401D4000222B1AD030E01C4B07221A80BA791346DB009B1A194A1344174A5360BB79BA7917498A5CD2B242F00102D1B2144AD15400F03AFB0346FB7116E0BB790D4A927837
:401D8000D2B291B20F4A22F81310BB79BA790C498A5CD2B242F00202D1B2094AD15400F0BFFB0346FB7100BFFB7918460837BD4680BD00BF006000401482FF1F2481FF1F2A
:401DC000F081FF1F0482FF1F80B485B000AF0346FB710023FB73FF23BB7317E0FB7B104AD35C7B737A7B0F4913465B0013449B000B4408339B78DBB2FA799A4203D1FB7B68
:401E0000BB730223FB73FB7B0133FB73FB7B012BE4D9BB7B18461437BD465DF8047B7047F881FF1F3082FF1F80B582B000AF0023BB71224B00221A70214B00221A70204B95
:401E400000225A700023FB7110E0FB791D4AD35C7B717B79002B06D07B79082B03D87B791846FFF713FFFB790133FB71FB79012BEBD9154B1B78DBB2002B18D0114B1B78B6
:401E8000DBB2002B13D0114B1B78DBB2002B0ED00D4B1B78DBB2082B09D80A4B1B78DBB2082B04D8094B1B78DBB2082B01D90123BB71BB7918460837BD4680BDDB81FF1F96
:401EC000F081FF1FFC81FF1FF481FF1FF881FF1F80B584B000AF78600B467B80144B1B781A46144B9B5CFB73FA7B134913465B0013449B000B4408331B889BB27A889A426D
:401F00000CD9FA7B0C4913465B0013449B000B4408331B887B800020FFF770FBFA7B7B88104679681A46FFF735FE1037BD4680BDDB81FF1FF481FF1F3082FF1F80B500AF23
:401F4000054B1B781A46054B9B5CDBB21846FFF70BFE0346184680BDDB81FF1FF481FF1F80B485B000AF78600B46FB701346BB707B68DB7803F00303FB737B689B78DBB2AC
:401F80005BB2002B1ADAFB7B032B0AD0BB7803F001031549FA78CA54BB7843F00103BB701BE0BB789B08DBB203F001030F49FA78CA54BB7843F00403BB700EE0FB7B032B63
:401FC0000BD0BB785B08DBB203F001030849FA78CA54BB7843F00203BB70BB7818461437BD465DF8047B7047F481FF1FF881FF1FFC81FF1F80B582B000AF374B1B78BB71EF
:40200000BB7903F01003002B63D00123FB71BB795BB2002B13DABB7903F00F03012B02D00023FB711DE000F061F82C4B1B78DBB2DBB25BB2002B14DA0023FB7111E0BB7915
:4020400003F04003002B02D000F094F809E0BB7903F02003002B02D000F0B2F801E00023FB71FB79002B34D01B4B1B78BB71BB795BB2002B2DDB1A4B1B78DAB2194B1B78C0
:40208000DBB21343BB71184ABB791370164B1B78DBB2BA799A421CD1104B1B78FB710E4B1B78DBB223F07F03BB71BB79002B0AD1094B0A4A1278D2B21A70074B1B78DBB2FB
:4020C00003F00F03FB71054B1B78DBB2FA799A42E2D10837BD4680BD286000402982FF1F9F82FF1F2C82FF1F2960004080B582B000AF1D4B1B78FB711B4AFB7913701A4BDB
:402100001B78FB71FB795BB2002B03DA174AFB79137025E0022000F043FA154B1B78DBB203F06003202B08D0402B0BD0002B0ED100F0CAFC0346FB710CE001F0F1FC0346A4
:40214000FB7107E001F086FC0346FB7102E00023FB7100BFFB79002B02D1044B03221A700837BD4680BD00BF286000402982FF1F0060004080B500AF104B1B78DBB2062B45
:4021800019D801A252F823F0B7210000B7210000A5210000B7210000AB210000B7210000B121000000F0FAF806E000F0A9F903E000F0D2F900E000BF80BD00BF0C82FF1F2B
:4021C00080B500AF124B1B78DBB2062B1DD801A252F823F00B2200000B220000F12100000B220000F72100000B220000FD21000000F0DAF80AE000F029F907E0032000F0A4
:40220000CFF9044B03221A7000E000BF80BD00BF0C82FF1F2982FF1F80B483B000AF0023FB71294B1B78DBB29AB2284B1B889BB213449AB2254B1A8015E02549FB79254AED
:4022400052681278D2B2CA54224B5B680133214A5360FB790133FB711E4B1B889BB2013B9AB21C4B1A801B4B1B889BB2002B02D0FB79072BE1D9144B1B78DBB2082B02D0C9
:40228000FB79002B0FD0144B1B78DBB283F07F03DB43DAB2104B1A70104B0F221A70104B02221A7005E00D4B02221A700C4B02221A700C4AFB791370034AFB7913700C37BA
:4022C000BD465DF8047B70470882FF1F0A82FF1F006000401482FF1F9F82FF1F2982FF1F0C82FF1F2C82FF1F80B582B000AF164B1B889BB2002B02D100F02EF81EE0134B53
:4023000002221A70124B00221A7000F069F9114BDB79DBB29BB21B029AB20E4B9B79DBB29BB21343FB80084B1B889BB2FA889A4202D2054AFB881380FFF76EFF01231846CA
:402340000837BD4680BD00BF1482FF1F0C82FF1F9F82FF1F0060004080B400AF0A4B02221A700A4B80221A70094B0F221A70094B00221A70084B00221A7001231846BD46E6
:402380005DF8047B704700BF0C82FF1F9F82FF1F2982FF1F0882FF1F2C82FF1F80B500AFFFF73AFF80BD00BF80B500AF0A4B1B78DBB29AB2094B1B889BB213449AB2074BBE
:4023C0001A80074B00221A70012000F0E9F8054B03221A7080BD00BF0882FF1F0A82FF1F0C82FF1F2982FF1F80B582B000AF124B04221A70114B80221A7000F0F1F8104BB2
:40240000DB79DBB29BB21B029AB20D4B9B79DBB29BB21343FB800B4B1B889BB2FA889A4202D2084AFB881380074B0B221A70012318460837BD4680BD0C82FF1F9F82FF1F19
:40244000006000401482FF1F2982FF1F80B483B000AF0023BB71234B1B78DBB203F00F03DBB2023BFB71FB799AB21F4B1B889BB213449AB21C4B1A8018E01C4B5B681C49CC
:40248000BA798A5CD2B21A70184B5B680133174A5360BB790133BB71FB79013BFB71134B1B889BB2013B9AB2104B1A800F4B1B889BB2002B02D0FB79002BDED10D4AFB79AC
:4024C00013700D4B1B78DBB283F07F03DB43DAB2094B1A70094B0B221A700C37BD465DF8047B7047296000400A82FF1F1482FF1F006000402C82FF1F9F82FF1F2982FF1FED
:4025000080B500AF044B00221A70012000F048F8024B03221A7080BD0C82FF1F2982FF1F80B400AF084B06221A70084B06221A70074B80221A70074B00221A7001231846D2
:40254000BD465DF8047B70470C82FF1F2982FF1F9F82FF1F2C82FF1F80B500AF0C4B1B78DBB2002B0AD00B4A094B1B78DBB263F07F03DBB21370064B00221A70064B0022CF
:402580001A70012000F00CF8044B03221A7080BD2A82FF1F086000400C82FF1F2982FF1F80B483B000AF0346FB710B4B9B68002B0CD0094B9B68FA791A70074B9B68074A35
:4025C000128892B25A80044B00229A600C37BD465DF8047B704700BF1482FF1F0A82FF1F80B400AF094B00221A80094B9B68002B07D0074B9B6800221A70054B9B68002208
:402600005A80BD465DF8047B704700BF0A82FF1F1482FF1F80B400AF0D4B01221A700D4B9B7C0D4B1B7BDBB203F00303012B08D0094BDB7BDBB283F07F03DB43DAB2064B1F
:40264000DA73054B01225A73BD465DF8047B70470B600040FC5F00403082FF1F80B400AF0E4B02221A700E4B93F822300D4B1B7EDBB203F00303012B08D00A4BDB7EDBB253
:4026800083F07F03DB43DAB2064BDA76054B01225A76BD465DF8047B704700BF0B600040FC5F00403082FF1F80B400AF104B04221A70104B93F832300F4B93F82430DBB238
:4026C00003F00303012B0AD00B4B93F82730DBB283F07F03DB43DAB2074B83F82720064B012283F82520BD465DF8047B704700BF0B600040FC5F00403082FF1F80B400AFE9
:40270000BD465DF8047B704780B500AFFFF7DCF980BD00BF80B582B000AF0023FB716C4B1B79BB716A4B1B78DBB2DBB25BB2002B6DDA674B5B78DBB2013B052B65D801A205
:4027400052F823F0A3270000BD270000E92700000B2800000B2800005D2700005C4BDB78DBB2212B0BD100F0BDF85A4B1B889BB2002B15D0FFF7B8FD0346FB7146E0544B36
:40278000DB78DBB2222B0BD100F0EAF8514B1B889BB2002B04D0FFF7A7FD0346FB7135E034E000F025F94B4B1B889BB2002B04D0FFF79AFD0346FB7128E027E0BB79022BF6
:4027C00011D8434B9B78DBB2002B0CD1414B01221A80BB79404A13443E4A5360FFF784FD0346FB7112E011E0BB79022B0CD8394B01221A80BB79394A1344364A5360FFF755
:4028000073FD0346FB7101E000E000BF5AE0304B5B78DBB20A2B11D00B2B3FD0092B00D050E000F0E5F82B4B1B889BB2002B04D0FFF7DAFD0346FB7144E043E0BB79022BF3
:402840002BD8234B9B78DBB2002B26D1BB79204AD278D1B2204AD154BB791F4AD35CDAB2BB791F49CB5CDBB29A4204D2BB791C4A0021D1540CE0BB79194AD35CDBB2012B86
:4028800006D9BB79BA7914498A5CD1B2144AD154FFF746FE0346FB7114E013E0BB79022B0FD80B4B9B78DBB2012B0AD8BB79084A9278D1B2094AD154FFF732FE0346FB7101
:4028C000FFE700BFFB7918460837BD4680BD00BF006000401482FF1FAC82FF1FA482FF1FA882FF1F80B584B000AF194B1B78DBB2013BDBB2184600F00DFFF860154B1B79EC
:40290000FB72FB7A0233DB00FA681344FB60FB685B68FB60FB7A104AD35CDBB2DB00FA681344FB60FB685B68FB60FB682033FB60FB685B687B607B681B78DBB29AB2074B62
:402940001A80064A7B6853601037BD4680BD00BF2B82FF1F006000409C82FF1F1482FF1F80B584B000AF1E4B1B78DBB2013BDBB2184600F0CFFEF8601A4B1B79FB72FB7A7E
:402980000233DB00FA681344FB60FB685B68FB60FB7A154AD35CDBB2DB00FA681344FB60FB685B68FB60FB681833FB60FB685B687B607B6801331B78DBB29BB21B029AB27B
:4029C0007B681B78DBB29BB213439AB2074B1A807B680233054A53601037BD4680BD00BF2B82FF1F006000409C82FF1F1482FF1F80B584B000AF2D4B00221A802C4B1B78E8
:402A0000DBB2013BDBB2184600F084FEF860294BDB78FB72274B1B79BB72BB7A0233DB00FA681344FB60FB685B68FB60BB7A022B38D8BB7A204AD35CDBB2DB00FA68134476
:402A4000FB60FB685B68FB60FB7A002B2AD0FB7A032B27D8FB7A03F10053013BDB00FA681344FB60134B9B78FB72FB681B78FA7A9A4217D8FB685B687B60FA7A13465B001B
:402A800013449B001A467B6813447B607B685B68064A53607B681A88044B1A807B689B68024A93601037BD4680BD00BF1482FF1F2B82FF1F006000409C82FF1F80B500AFEE
:402AC00000F0F2FF80BD00BF80B586B000AF0023FB759D4B1B78FB7100233B619B4B00221A80FB795BB2002B80F20481964B5B78DBB20A2B00F2FC8001A252F823F000BFBE
:402B0000492C0000F12C0000F12C0000F12C0000F12C0000F12C00002D2B0000F12C0000BB2C0000F12C0000D12C0000864BDB78DBB2012B0ED100F017FEB860BB685B685A
:402B4000824A5360814B12221A80FFF7CDFB0346FB7578E07C4BDB78DBB2022B24D17A4B9B78DBB2184600F0D5FDB860BB68002B69D0BB685B68754A5360744B5B68033370
:402B80001B78DBB29BB21B029AB2704B5B6802331B78DBB29BB213439AB26C4B1A80FFF7A3FB0346FB75A4E0674BDB78DBB2032B44D10023FB73664B3B6109E03B691B7888
:402BC000BB71BB793A6913443B61FB7B0133FB735D4B9B78DBB2FA7B9A4204D23B691B78DBB2002BEAD1584B9B78DBB2EE2B01D1584B3B61544B9B78DBB2002B0BD0524B5F
:402C00009B78DAB2544B1B7C9A4204D1534800F0A1F9524B3B613B691B78DBB2002B12D03B691B78DBB29AB2484B1A80474A3B695360FFF759FB0346FB755AE000F070FF1E
:402C40000346FB7555E054E0FB7903F00303002B1FD0022B00D02FE03C4B02221A803A4B1B79DBB203F07F023D4913465B0013449B000B449B78DAB23A4B1A70394B002271
:402C80005A70324B374A5A60FFF72EFB0346FB7512E02E4B02221A80334B1B78DAB2314B1A70304B00225A70284B2E4A5A60FFF71BFB0346FB7500BF1BE0244B01221A8037
:402CC000224B2A4A5A60FFF70FFB0346FB7510E01E4B01221A801C4B1B79DBB21A46244B13441A4A5360FFF7FFFA0346FB7500E000BF19E1144B5B78DBB2013B0A2B00F242
:402D0000128101A252F823F0132E0000272F00009D2E0000272F0000352D0000272F0000272F0000272F0000792D0000272F0000CF2D0000044B9B78DAB20E4B1A70FFF725
:402D4000EFFB0346FB75EFE0006000401482FF1F04450000A446000094440000B882FF1F3082FF1FDC81FF1F2D82FF1F2B82FF1F9C82FF1F2A82FF1F6E4B9B787B717B7995
:402D8000002B06D07B79013BDBB2184600F0C2FCB8607B79002B02D0BB68002B02D17B79002B13D1644B1B78DBB27A799A4208D0614A7B791370614B01221A70012000F01A
:402DC000C1F9FFF7ADFB0346FB75ADE0ACE000F009FE0346002B1BD0564B1B793B71554B1B79DAB2564B1A703B79564AD35CDAB23B795549CB5CDBB29A4204D04F4B012205
:402E00001A7000F069FBFFF78BFB0346FB758BE08AE0FB7903F00303012B22D0012B0DD3022B00D039E0434B9B78DBB2002B04D100F040FD0346FB752FE02EE03D4B9B7831
:402E4000DBB2012B0CD1414B1B78DBB223F00203DAB23E4B1A70FFF763FB0346FB751CE01BE0344B1B79DBB2022B15D8314B9B78DBB2DB43DBB22F4A1279D2B2114610469F
:402E8000334A125CD2B21340DAB2314B5A54FFF747FB0346FB75FFE700BF45E0FB7903F00303012B22D0012B0DD3022B00D039E0204B9B78DBB2002B04D100F08DFC034665
:402EC000FB752FE02EE01B4B9B78DBB2012B0CD11E4B1B78DBB243F00203DAB21B4B1A70FFF71EFB0346FB751CE01BE0114B1B79DBB2022B15D80F4B9B78DBB2DB43DBB2FE
:402F00000C4A1279D2B211461046114A125CD2B21340DAB20E4B5A54FFF702FB0346FB75FFE700BF00E000BFFB7D18461837BD4680BD00BF006000402B82FF1F2882FF1F05
:402F40002082FF1F1082FF1F9C82FF1F2D82FF1FA082FF1FB0B58AB000AF7860314B07F114041D460FCD0FC42B682370002387F826307B68002B52D07B6822221A707B68F2
:402F8000013303221A7007F10C031846FEF7C0FB022387F827303EE097F827307A68134497F8262007F128010A4412F81C2C1209D2B207F128010A4412F8142C1A7097F8DA
:402FC000273001337A68134400221A7097F8273002337A68134497F8262007F128010A4412F81C2C02F00F0207F128010A4412F8142C1A7097F8273003337A6813440022BA
:403000001A7097F82630013387F8263097F82730043387F8273097F82730212BBCD92837BD46B0BD8044000090B482B000AF0123FB7174E03F4AFB791B0113440C221A709A
:40304000FA793D4913465B0013449B000B445B79DBB2002B1AD0FA79374913465B0013449B000B441B79DBB2DBB25BB2002B06DA324AFB791B0113440C229A700CE02F4A3E
:40308000FB791B01134408229A7005E02B4AFB791B01134480229A702648F979FA79264C13465B0013449B002344DB889BB2DAB20B0103449A711F48F979FA791E4C13468D
:4030C0005B0013449B002344DB889BB21B0A9BB2DAB20B010344DA711648F979FA79164C13465B0013449B002344DB889BB2DAB20B0103441A710F48F979FA790E4C134615
:403100005B0013449B002344DB889BB21B0A9BB2DAB20B0103445A71FB790133FB71FB79082B87D9064BFF221A700837BD4690BC704700BF706000403082FF1FFC5F004079
:403140000A60004080B58AB000AF0346FB7100237B84002387F827304CE097F82720C44913465B0013449B000B4400221A7097F82720BF4913465B0013449B000B44002212
:403180009A7097F82720BA4913465B0013449B000B440022DA7097F82720B54913465B0013449B000B44083300221A8097F82720AF4913465B0013449B000B4408330022EB
:4031C0009A7097F82720AA4913465B0013449B000B4400225A7097F82720A54913465B0013449B000B4400225A7197F82730013387F8273097F82730082BAED9FB79002B46
:4032000016D0002387F825300EE097F82530994A0021D15497F82530974A0021D15497F82530013387F8253097F82530022BECD9924B1B78DBB2002B00F049810023FB7673
:403240008E4B1B78DBB2013BDBB2184600F062FA78617B695B683B613B6907331B7803F04003002B08D0864B1B78DBB243F00103DAB2834B1A7007E0814B1B78DBB223F02A
:403280000103DAB27E4B1A707B6908337B617B691B7887F82730012387F82530B3E07B695B68FB61002387F82630A0E097F82520FB699B7803F07F039A4240F0908097F872
:4032C00025206B4913465B0013449B000B4408331B889AB2FB699B889A420CD297F82520FB699888624913465B0013449B000B44083302461A80FB691B781A465D4B9B5C6A
:40330000DAB2FB695B789A4269D197F82520FB699878574913465B0013449B000B4402461A7197F82520FB69D878514913465B0013449B000B4402461A70FB69DB7803F071
:403340000303FB73FB699B78DBB25BB2002B1ADA97F82520FB7B012B01D1072000E00D20434913465B0013449B000B4402465A7197F825203E4913465B0013449B000B4449
:4033800001225A7019E097F82520FB7B012B01D1052000E00920364913465B0013449B000B4402465A7197F82520314913465B0013449B000B4400225A70FB699B790A2B4E
:4033C00003D0FB699B79022B09D197F82520FB7EF86911461A46FEF7C3FD0346FB76FB690833FB6197F82630013387F8263097F8262097F827309A42FFF458AF97F8253049
:40340000013387F8253097F82530082B7FF647AF7B695B68FB61002387F8253016E0FB699B7803F07F02FB691878114913465B0013449B000B44083302469A70FB690833B8
:40344000FB6197F82530013387F8253097F8252097F827309A42E2D300F098F90246094B1A6000237B84012387F8273029E000BF3082FF1F9C82FF1F1082FF1F2B82FF1FB7
:403480002D82FF1F2482FF1F97F82720114913465B0013449B000B447A8CDA8097F827200C4913465B0013449B000B4408331B889AB27B8C13447B8497F82730013387F8B6
:4034C000273097F82730082BDED9FFF7ADFD2837BD4680BD3082FF1F90B585B000AF874B1B78DBB2002B00F00681844B1B78DBB2013BDBB2184600F00DF978607B680833D7
:403500007B607B681B78FB707B685B68BB607C4B1B78BB700023FB73E8E0BB681B78BA789A4240F0DD80BB78764AD35CDAB2BB685B789A4240F0D480BB689B7803F07F0330
:403540007B70BB68DB7803F003033B707A786E4913465B0013449B000B440022DA707A78BB689878684913465B0013449B000B4402461A717A78BB68D878634913465B00D9
:4035800013449B000B4402461A707A78BB6898885D4913465B0013449B000B44083302461A80BB689B78DBB25BB2002B18DA7A783B78012B01D1072000E00D205249134653
:4035C0005B0013449B000B4402465A717A784E4913465B0013449B000B4401225A7017E07A783B78012B01D1052000E00920464913465B0013449B000B4402465A717A7860
:40360000414913465B0013449B000B4400225A703E4A7B781B01134401229A703B4879787A78394C13465B0013449B00234408331B889BB21B0A9BB2DAB20B0103441A7006
:40364000324879787A78304C13465B0013449B00234408331B889BB2DAB20B0103445A702B4879787A78284C13465B0013449B002344DB889BB2DAB20B0103449A712448B3
:4036800079787A78204C13465B0013449B002344DB889BB21B0A9BB2DAB20B010344DA711B4879787A78184C13465B0013449B002344DB889BB2DAB20B0103441A71144835
:4036C00079787A78104C13465B0013449B002344DB889BB21B0A9BB2DAB20B0103445A71BB680833BB60FB7B0133FB73FA7BFB789A42FFF412AF1437BD4690BD2B82FF1F43
:403700002082FF1F9C82FF1F3082FF1FFC5F00407060004080B485B000AF0346FB71104B1B78DBB20F4ADB0013445B68FB60FB681033FB60FB681B78FA799A4202D30023E3
:40374000FB6005E0FB79DB00FA6813445B68FB60FB6818461437BD465DF8047B704700BF0982FF1F9C46000080B400AF054B1B78DBB2054ADB0013445B681846BD465DF8B2
:40378000047B70470982FF1F9C46000080B584B000AF104B1B78DBB2013BDBB21846FFF7B9FFB860BB68002B0DD0BB685B681B79FB71FB790233DB00BA681344BB60BB687C
:4037C0005B68FB6001E00023FB60FB6818461037BD4680BD2B82FF1F80B582B000AF0023FB71314B1B79DBB203F07F03BB71BB79002B53D0BB79082B50D8BA79B9792B486D
:403800000B465B000B449B0003449B78DBB243F00103D8B2254913465B0013449B000B4402469A70BA79214913465B0013449B000B440022DA70BA79B9791C480B465B0022
:403840000B449B0003445B78DBB243F00203D8B2164913465B0013449B000B4402465A70BA79124913465B0013449B000B441B79DBB2DBB25BB2002B06DA0D4ABB791B019F
:4038800013448D229A7005E0094ABB791B01134489229A70FEF744FE0346FB71FB7918460837BD4680BD00BF006000403082FF1FFC5F004080B582B000AF0023FB71464B27
:4038C0001B79DBB203F07F03BB71BB79002B7DD0BB79082B7AD8BA79B97940480B465B000B449B0003449B78DBB223F00103D8B23A4913465B0013449B000B4402469A70CC
:40390000BA79364913465B0013449B000B440022DA70334ABB791B0113447F221A70BA79B9792E480B465B000B449B0003445B78DBB223F00203D8B2284913465B001344EF
:403940009B000B4402465A70BA79244913465B0013449B000B441B79DBB2DBB25BB2002B18DABA791D4913465B0013449B000B445B78DBB2012B06D1194ABB791B011344E3
:403980000C229A701EE0164ABB791B0113440D229A7017E0BA79114913465B0013449B000B445B78DBB2012B06D10D4ABB791B01134408229A7005E0094ABB791B011344A4
:4039C00009229A70FEF7ACFD0346FB71FB7918460837BD4680BD00BF006000403082FF1FFC5F004080B584B000AF0023FB73154B1B79BB73144B1B78DBB2013BDBB21846B3
:403A0000FFF788FEB860BB685B681B79FB71BA7BFB799A4202D9BB7B032B0ED8BB7BBA7B0A498A5CD1B20A4AD154BB7B054A9278D1B2064AD1540123FB73FB7B184610378E
:403A4000BD4680BD006000402B82FF1F9C82FF1F1082FF1F80B582B000AF0023FB710F4B1B78DBB2DBB25BB2002B12DA0B4B5B78DBB2012B00D00CE0094B0A4A5A60094B8B
:403A80001B789AB2064B1A80FEF72EFC0346FB7100BFFB7918460837BD4680BD006000401482FF1FB846000080B400AF054B1B78DBB203F040039B09DBB21846BD465DF896
:403AC000047B70478F450040142816D902B4012114381049097811F0C001890904B40E4A515C04BC00BF00BF00BF8841FDD500BF00BF02BC704700BF00BF70F10400FCD503
:403B000070470B050709EFF3108072B6704780F31088704700480040023B0000AFF3008080B582B000AF1D4B1B78DBB203F00303012B02D0022B04D012E0184B1B79BB7109
:403B400011E0164B1B79DBB203F07F02144913465B0013449B000B4408339B78BB7102E00023BB7100BF0F4B1A68BB7913441B78022B06D0032B09D1FEF7CCFD0346FB712A
:403B800007E0FEF7ADF80346FB7102E00023FB7100BFFB7918460837BD4680BD006000403082FF1F2482FF1F014B1868704700BFA081FF1F0E4B70B51E460E4C0025E41A3A
:403BC000A410A54204D056F8253098470135F8E700F0A2FD084B094C1E46E41AA4100025A54204D056F8253098470135F8E770BD2447000024470000244700002C4700001A
:403C000010B5431E0A44914204D011F8014B03F8014FF8E710BD03460244934202D003F8011BFAE7704700000EB400B54FF402719CB0ADF814106FF00041049107914FF6E4
:403C4000FF711DABADF81610084953F8042B02900690086802A9019300F064F8029B00221A701CB05DF804EB03B07047A081FF1F2DE9F0478E688246B3420C46904699464A
:403C800040D38A8912F4906F3AD02568096902236F1A656905EB450595FBF3F57B1C4B449D4238BF1D4653050FD5294600F030FB064698B121693A46FFF7A2FFA38923F404
:403CC000906343F08003A38113E02A4600F076FB064670B95046216900F0D6FA0C23CAF80030A3894FF0FF3043F04003A381BDE8F08726613E4426604E466561ED1BA56077
:403D0000B14500D24E4632462068414600F0A0FAA36800209B1BA36023681E442660BDE8F08700002DE9F0439DB003938B8906461C060D4690460CD50B6953B9402100F01A
:403D4000E7FA2860286110B90C233360CCE040236B610023099320238DF8293030238DF82A3043461C4613F8012B1AB9B4EB08090FD002E0252AF5D1F8E730462946424612
:403D80004B46FFF775FF013000F0A980099B4B4409932378002B00F0A28000234FF0FF3204930793059206938DF853301A9304F101084446DFF8489121784846052200F0F8
:403DC00039FA08F10108049B30B1C9EB00000122824013430493ECE7D80644BF20228DF85320190744BF2B228DF8532022782A2A02D0079923460EE0039A0134111D126801
:403E00000391002ABBBF524243F0020307920792B8BF04930AE01C4622780133303A092A03D80A2000FB0121F5E7079123782E2B1AD163782A2B0AD1039B02341A1D1B6879
:403E40000392002BB8BF4FF0FF3305930CE0611C00220C4623780131303B092B03D80A2000FB0232F5E70592DFF8988021784046032200F0DFF938B1049AC8EB000040237A
:403E8000834013430493013421781A48062204F101088DF8281000F0CDF988B1164B33B9039B073323F007030833039313E003AB0093304604A92A46104BAFF3008007E012
:403EC00003AB0093304604A92A460C4B00F092F8421C074603D0099B3B44099341E7AB895B0601D4099801E04FF0FF301DB0BDE8F08300BFEC46000000000000713C0000DB
:403F0000E2460000E84600002DE9F84391461F468A680B6906469342B8BF1346C9F8003091F843200C46DDF8208012B10133C9F800302368990642BFD9F800300233C9F899
:403F40000030256815F006051CD094F843302268003318BF012392061FD5E118302081F843005A1C94F845102244023382F8431013E03046394604F119020123C04701302D
:403F800007D00135E368D9F800209B1A9D42F0DBDBE74FF0FF30BDE8F8833046394604F14302C0470130F4D02268D9F80050E36802F00602042A08BF5D1B2269A3680CBF20
:403FC00025EAE57500259342C4BF9B1AED184FF00009A9450ADA3046394604F11A020123C0470130D5D009F10109F2E70020BDE8F88300002DE9FF410C461746227E984660
:404000006E2A06460A9B01F1430100F0B08012D8632A23D00AD8002A00F0BD80582A40F0CC8084F84520DFF804E257E0642A1ED0692A1CD0C1E0732A00F0B18009D86F2A57
:404040002ED0702A40F0B980226842F0200222603FE0752A24D0782A3BD0AEE01A6804F14205111D1960136884F84230A9E020681A6810F0800F02D0101D186008E010F0A3
:40408000400F02F10400186002D0B2F9003000E01368002B3EDA2D225B4284F8432039E020681A6810F0800F02D0101D186007E010F0400F02F10400186001D0138800E012
:4040C0001368227EDFF864E16F2A0CBF08220A221CE07822DFF858E184F845202268186812F0800F00F104051D6003D1550601D5038800E00368D00744BF42F020022260AB
:404100001BB9226822F0200222601022002084F8430002E0DFF814E10A226568002DA8BF2068A560A4BF20F00400206003B965B10D46B3FBF2F002FB10331EF8033005F860
:40414000013D03460028F4D100E00D46082A0BD12368DA0708D5236962689A42DEBF302305F8013C05F1FF35491B21612EE025681A6815F0800F606903D0151D1D6013685E
:4041800008E015F0400F02F104051D60136801D0188000E01860002323610D4616E01A68111D1960156800212846626800F042F808B1401B6060636804E004F1420584F8BA
:4041C000422001232361002384F84330CDF800803046214603AA3B46FFF796FE013002D14FF0FF301FE0304639462A462369C0470130F5D023689B0705D4E068039B9842A4
:40420000B8BF18460FE00025E368039A9B1A9D42F3DA3046394604F119020123C0470130DED00135F0E704B0BDE8F081F34600000447000010B5C9B202449042034605D06C
:404240001C7801308C42F8D1184610BD002010BD814210B501EB020301D3421E0BE09842FBD28118D21AD34204D013F8014D01F8014DF8E710BD994204D011F8014B02F8D3
:40428000014FF8E710BD000030B500293CD051F8042C0B1F1D49002AB8BF9B180A680C4612B95A600B6030BD93420DD219685818904201BF5A5852181A60426823605A6036
:4042C00030BD994203D80A4651680029F9D1146815199D420AD11B682344D0188842136012D10868034413604B680CE002D90C23036030BD1C681819884201BF0868496846
:40430000001918605960536030BD00BFE481FF1F70B5CC1C24F0030408340C2C38BF0C24002C064603DA0C233360002070BD8C42F9D3204A136810461946A1B10A68121B05
:404340000ED40B2A03D90A608B188C501FE08B420BBF5A684A6802605A6018BF0B4616E00B464968E9E7144D2B681BB9304600F04BF828603046214600F046F8421C0346A0
:40438000D1D0C51C25F0030585420AD11C6003F10B001A1D20F00700821A0AD05142995070BD3046E91A00F02FF80130BBD02B46ECE770BDE481FF1FE081FF1FF8B507461B
:4043C00015460E4621B91146BDE8F840FFF7A0BF1AB9FFF759FF2846F8BD00F025F8A8420ED238462946FFF793FF044650B131462A46FFF705FC38463146FFF745FF01E0E2
:404400003046F8BD2046F8BD38B5064C0023054608462360FBF7B0FE431C02D1236803B12B6038BDDC82FF1F51F8040C0028BEBF091851F8043CC018043870470000000038
:404440004144435F4F75747075740000523A20256C640A00305100404000C0510040100000000140001000140140000800400140000A004C014000020050014020000000FE
:4044800030313233343536373839414243444546000000001201000202000008B40432F2010001048001000009025C00030101803209040000010202000205240010010468
:4044C000240202052406000105240100010705810308000A09040100020A000003070582024000000705030240000009040200010300000509211101000122300007058323
:404500000308000A040309042C0343007900700072006500730073002000530065006D00690063006F006E0064007500630074006F00720038034300440043002000430053
:404540006F006D006D0075006E00690063006100740069006F006E00200049006E0074006500720066006100630065002603430044004300200044006100740061002000CA
:4045800049006E00740065007200660061006300650010035500530042005500410052005400160363006F0073006A006F0079007300740069006B000000000002030000C1
:4045C000300005010904A1010901A100093009311581257F750895028102C005091901290515002501750195058102950175038103C0000004000000B082FF1FB482FF1F09
:4046000000000000F44500000000000000000000000000000000000001000000C045000001000000F4440000010000000046000000008103080002000100820240000A005E
:404640000100030240000A000200830308000300020A030001000000A844000004000000304600000000000000000000000000000000000001000000284600000000000072
:4046800050460000010000009444000000000000000000000100000054460000010000008446000012034D0053004600540031003000300001000000280000000001040017
:4046C00001000000000000000001435955534200000030303030310000000000000000004300232D302B2000686C4C0065666745464700303132333435363738394142433C
:40470000444546003031323334353637383961626364656600000000F8B500BFF8BC08BC9E4670474D00000061020000F8B500BFF8BC08BC9E4670472900000050470000DA
:404740000881FF1FA0000000380100000000000000000000E082FF1F0100000000366E01C05D0000180000000000E02E00C2010000000800C201000000080000A1200000F9
:4047800000000200000000000000000000000000000000000000000000000000000000000000000000000000E04600000000000000000000000000000000000000000000D1
:4047C000000000000000000000000000000000000000000000000000000000000000000000000000000000004081FF1F0000000000000000000000000000000000000000DA
:404800000000000000000000000000000000000000000000000000000000000000000000000000000000000000000000000000000000000000000000000000000000000078
:404840000000000000000000000000000000000000000000000000000000000000000000000000000000000000000000000000000000000000000000000000000000000038
:4048800000000000000000000000000000000000000000000000000000000000000000000000000000000000000000000000000000000000000000000000000000000000F8
:4048C00000000000000000000000000000000000000000000000000000000000000000000000000000000000000000000000000000000000000000000000000000000000B8
:020000040003F7
:0200000480007A
:40000000014500400152004001090140040A0140010B0140011501400217014002190140011B014003400140034101400342014003430140024401400145014003460140A8
:40004000074701400648014001490140034C0140024D0140015101407E027C40B502B802BE01D804DF011D02EC10EA02EE0AEA02EE0AEC1033813640CC709F01A640A7800A
:400080009F01A640A7809F01A640A7807C01DE01940145089401D00108080B040F40A508B401C20EEC082510AE40AF81C820EA40EE50B510A508AC08AF44B508EC08002A17
:4000C000000000000000C0004000000000000000C0000000000B0B0000000000007F7F0000000000070018010000000000000000000000000000000000000000000000000C
:4001000000000000000000000000000000000000000000000000000000000000000000000000000000000000000000000000000000000000000000000000000000000000BF
:40014000000000000000000000000000000000000000000000000000000000000000000000000000000000000000000000000000000000000000000000000000000000007F
:40018000000000000000000000000000000000000000000000000000000000000000000000000000000000000000000000000000000000000000000000000000000000003F
:4001C00000000000000000000000000000000000000000000000000000000000000000000000000000000000000000000000000000000000000000000000000000000000FF
:0200000490006A
:0400000000004005B7
:0200000490105A
:04000000BC90ACAF55
:0200000490303A
:02000000E39883
:0200000490402A
:4000000000000000000000000000000000000000000000000000000000000000000000000000000000000000000000000000000000000000000000000000000000000000C0
:400040000000000000000000000000000000000000000000000000000000000000000000000000000000000000000000000000000000000000000000000000000000000080
:400080000000000000000000000000000000000000000000000000000000000000000000000000000000000000000000000000000000000000000000000000000000000040
:4000C0000000000000000000000000000000000000000000000000000000000000000000000000000000000000000000000000000000000000000000000000000000000000
:0200000490501A
:0C00000000012E16106900012E30F401E2
:00000001FF